S00F00004B4E32435361742E73726563DF
S1130000FDC0000018C1000016C1000014C10000AA
S113001012C1000010C100000EC100000CC100009C
S11300200AC1000008C1000006C1000004C10000AC
S113003002C100000C94CF100C944D0B0C94760B61
S11300400C949F0B0C94C80B0C94F10B0C941A0C8D
S11300500C94430C0C946C0C0C94950C0C94BE0CEA
S1130060EAC00000E8C00000E6C00000E4C00000F0
S1130070E2C00000E0C00000DEC00000DCC0000000
S1130080DAC00000D8C00000D6C00000D4C0000010
S1130090D2C00000D0C00000CEC00000CCC0000020
S11300A0CAC00000C8C00000C6C000000C94FE1006
S11300B0C2C00000C0C00000BEC000000C94580EB6
S11300C00C94810E0C94AA0E0C94D30E0C94FC0E7A
S11300D00C94250FB0C00000AEC00000ACC00000FE
S11300E0AAC00000A8C00000A6C00000A4C0000070
S11300F0A2C00000A0C000009EC000009CC0000080
S11301009AC0000098C0000096C0000094C000008F
S113011092C0000090C000008EC000008CC000009F
S11301208AC0000088C0000086C0000084C00000AF
S113013082C000000C94F4100C94E70C0C94100D85
S11301400C94390D0C94620D0C948B0D0C94B40D1D
S11301500C94DD0D0C94060E0C942F0E6CC0000054
S11301606AC0000068C0000066C0000064C00000EF
S113017062C0000060C000005EC000005CC00000FF
S11301805AC0000058C0000056C0000054C000000F
S113019052C0000050C000004EC000004CC000001F
S11301A04AC0000048C0000046C0000044C000002F
S11301B042C0000040C000003EC000003CC000003F
S11301C03AC0000038C0000036C0000034C000004F
S11301D032C0000030C000002EC000002CC000005F
S11301E02AC0000028C0000026C0000024C000006F
S11301F022C0000020C000001EC0000011241FBE49
S1130200CFEFCDBFDFE2DEBF10E2A0E0B0E2EAE074
S1130210FCE202C005900D92A434B107D9F721E2A3
S1130220A4E4B0E201C01D92A336B207E1F70E9434
S1130230A4100C940316E4CECF92DF92EF92FF92B7
S11302400F931F93CF93DF93EC016A017B01DB01D2
S1130250CA010197A109B109BC01CD01600F711F49
S1130260821F931FA70196010E942813213831058C
S113027041055105F8F4213460F4213260F4213150
S113028060F4293060F4253060F4233060F090E0AD
S11302900BC093E009C092E007C092E805C091E06A
S11302A003C091E801C090E888818C77892B88830A
S11302B081E001C08FEFDF91CF911F910F91FF90EB
S11302C0EF90DF90CF9008952F923F924F925F92DC
S11302D06F927F928F929F92AF92BF92CF92DF9252
S11302E0EF92FF920F931F93CF93DF93CDB7DEB7B7
S11302F06497CDBFDEBF4C013B014D875E8719017A
S1130300B80180E090E00E940F1220E030E040E865
S113031053E40E94C5120E94DE1129A53AA54BA5FB
S11303205CA5261B370B480B590BCA01B9010E9467
S1130330111269837A838B839C83B70180E090E0F8
S11303400E940F1220E030E040E054E30E94C51206
S113035029813A814B815C810E94C51220E030E002
S11303604AEF54E40E940E1120E030E048EC52E4DD
S11303700E94761169877A878B879C87B30180E016
S113038090E00E940F1220E030E040E855E40E9423
S1130390C512698B7A8B8B8B9C8B20E030E040E01C
S11303A05CE369817A818B819C810E94C51220E083
S11303B030E040E85DE30E94C5122B013C01B1012D
S11303C080E090E00E940F129B01AC01C301B201D6
S11303D00E94C5129B01AC0169897A898B899C8929
S11303E00E940E110E94DE112B013C01B40180E039
S11303F090E00E940F1220E030E040E855E40E94B3
S1130400C5126D837E838F83988720E030E040E8B7
S11304105BE369817A818B819C810E94C51220E013
S113042030E040E05EE30E94C51269837A838B83E7
S11304309C834D855E85BA0180E090E00E940F1296
S11304409B01AC0169817A818B819C810E94C512D8
S11304509B01AC016D817E818F8198850E940E1174
S11304600E94DE1169837A838B839C8320E030E0D1
S113047040EA51E469857A858B859C850E947211D6
S113048088230CF0BBC020E030E04AEF54E46985D7
S11304907A858B859C850E940D119B01AC010E947D
S11304A0C5126D837E838F83988720E030E040E01F
S11304B05FE30E94C51220E030E040EA50E40E946D
S11304C0C5120E94DE116D877E878F87988B20E08E
S11304D030E040E85EE36D817E818F8198850E94E3
S11304E0C51220E030E040EA50E40E94C5120E94A8
S11304F0DE116D837E838F83988720E030E040E7B0
S113050051EC69857A858B859C850E9472118823BC
S11305100CF05CC020E030E84BEB54E469857A854C
S11305208B859C850E940E119B01AC010E94C51213
S1130530698B7A8B8B8B9C8B6D857E858F85988957
S11305400E9411126D877E878F87988B20E030E0A0
S113055040EE50E469897A898B899C890E94C5128E
S11305609B01AC016D857E858F8598890E940E1153
S11305700E94DE116D877E878F87988B6D817E81C7
S11305808F8198850E9411126D837E838F83988753
S113059020E030E040E05FE369897A898B899C89B7
S11305A00E94C51220E030E040E351E40E94C512ED
S11305B09B01AC016D817E818F8198850E940E1113
S11305C00E94DE116D837E838F8398878D859E853F
S11305D0AF85B889481A590A6A0A7B0A29813A817F
S11305E04B815C818D819E81AF81B885281B390B3D
S11305F04A0B5B0B29833A834B835C8369817A8141
S11306008B819C810E94111220E030E040E055E390
S11306100E94C51220E030E040E058E30E94C51279
S113062020E030E040E051E40E94C51269837A83FF
S11306308B839C83C601B5010E9411129B01AC01FE
S113064069817A818B819C810E94C5126B017C0136
S1130650C301B2010E94111220E030E040E058E3EF
S11306600E94C51220E030E040E851E40E94C51227
S11306709B01AC01C701B6010E940D1120E030E0DE
S113068048EC52E40E94761120E030E048EC52E459
S11306900E94C5126B017C010E94DE11762E672E2A
S11306A0582E492E6093A9207093AA208093AB20E2
S11306B09093AC2080910020813051F4C0929C2012
S11306C0D0929D20E0929E20F0929F2010920020D4
S11306D00CE910E2D8018D909D90AD90BC90A501DD
S11306E09401C701B6010E940D1120EA3DE643E0E2
S11306F05FE30E94C5129B01AC01C501B4010E94D5
S11307000E116093A0207093A1208093A220909357
S1130710A320F80160837183828393834F925F9255
S11307206F927F9281E090E29F938F9309EE10E2A3
S11307301F930F930E944A137BD320E030E048ECD0
S113074052E469857A858B859C850E94C5120E9436
S1130750DE1160937B2070937C2080937D209093A6
S11307607E209F938F937F936F9380E190E29F937A
S11307708F931F930F930E944A135AD3CDBFDEBFAA
S11307806496CDBFDEBFDF91CF911F910F91FF9093
S1130790EF90DF90CF90BF90AF909F908F907F901D
S11307A06F905F904F903F902F9008950F938EE13C
S11307B08093842000E021E044E850E267E78DEA7A
S11307C090E294D6E4ECF0E280818111FDCF8FEBCE
S11307D09DE50197F1F700C000000F9108954F9235
S11307E05F926F927F928F929F92AF92BF92CF92BD
S11307F0DF92EF92FF920F93CF93DF9382EA80937D
S113080085200F2EF8E86F2EF0E27F2EF02D0F2EAC
S1130810F4E98F2EF0E29F2EF02DC4ECD0E20F2EDF
S1130820F8EBAF2EF0E2BF2EF02D0F2EFFE7CF2E08
S1130830F0E2DF2EF02D0F2EF9EBEF2EF0E2FF2E7B
S1130840F02D0F2EF0E84F2EF0E25F2EF02D02E097
S113085021E045E850E267E78DEA90E247D68881D7
S11308608111FDCFE5E8F0E280818E5F8083F501A0
S11308708081F6018083F7012081F201208390E0DA
S1130880982F8827820F911DF301819391933F0143
S1130890E815F905E1F6DF91CF910F91FF90EF9004
S11308A0DF90CF90BF90AF909F908F907F906F908C
S11308B05F904F9008950F93CF93DF931F92CDB71E
S11308C0DEB7898300E021E0AE014F5F5F4F67E749
S11308D08DEA90E20BD6E4ECF0E280818111FDCF49
S11308E00F90DF91CF910F9108950F931F93CF93A2
S11308F0DF931F92CDB7DEB78983162F03E021E083
S1130900AE014F5F5F4F67E78DEA90E2EFD5E4EC0D
S1130910F0E280818111FDCF8091B8208093812005
S11309203091B920309382202091BA2020938320E3
S1130930E12FF0E0EE0FFF1FEE0FFF1FE158FF4D18
S113094090E0A0E0B0E0BA2FA92F982F8827830F5A
S1130950911DA11DB11DBA2FA92F982F8827820F91
S1130960911DA11DB11D858B968BA78BB08F0F9008
S1130970DF91CF911F910F910895AF92BF92CF92C3
S1130980DF92EF92FF920F931F938091A820833000
S113099069F08630D9F081115FC0809186208BDFA9
S11309A0E8EAF0E280818F5F808359C060E0809143
S11309B087209BDFE6E8F0E28081805F80837BDF35
S11309C0E8EAF0E280818F5F808349C088E4809305
S11309D0862061E08091872088DF809145208823EC
S11309E0A1F1A0909420B0909520C0909620D09032
S11309F09720E0909220F090932000919020109105
S1130A00912020918E2030918F2040918C20509104
S1130A108D2060918A2070918B20E8E9F0E2838137
S1130A208F9382818F9381818F9380818F93809123
S1130A3088209091892048DC1092452081E08093A1
S1130A4044200F900F900F900F908091862033DFF9
S1130A5081E08093A82003C08F5F8093A8201F911A
S1130A600F91FF90EF90DF90CF90BF90AF900895DB
S1130A70E0E8F6E082E0868385838AE68A95F1F7EA
S1130A8000C082E086830895E0ECF9E083838281EC
S1130A908823ECF7E0ECF9E0838108951F93CF936A
S1130AA0DF93C0E6D6E010E11E83EEDF8FEFECDFCC
S1130AB01D83DF91CF911F910895FF920F931F9390
S1130AC0CF93DF93F62EC0E6D6E010E11E83DCDF81
S1130AD0082F8F2DD9DF1D83802FDF91CF911F9198
S1130AE00F91FF900895682F6F7785E2E6CF089500
S1130AF0CF93C82F682F84E2E0DF6C2F81E2DDDF23
S1130B00CF91089563E083E2D8CF089560E787E248
S1130B10D4CF0895DF92EF92FF920F931F93CF9358
S1130B20DF937B018A0190E1E0E6F6E09683ACDF97
S1130B30D82E1016110644F4E7010E0D1F1D8991DD
S1130B40A3DFC017D107D9F780E1E0E6F6E085839B
S1130B508D2DDF91CF911F910F91FF90EF90DF903A
S1130B600895EF92FF920F931F93CF93DF93F82E84
S1130B70EB018A01E22E82E091DF41E050E00F2C8C
S1130B8002C0440F551F0A94E2F7682F642B82E2D7
S1130B9094DF81E18F0D6E2D80628FDF8AE08F0DEF
S1130BA0A801BE018062B6DFDF91CF911F910F9142
S1130BB0FF90EF900895AB01BC0180E3ABCF0895A3
S1130BC0CF92DF92EF92FF920F931F93CF93DF9315
S1130BD0F82ED62E142FE90180E08ADF1160612FF0
S1130BE06C2986E26ADF802F8DDF112707FD1095BF
S1130BF02E2DA801BE0180E0B4DF8D2D74DFB80175
S1130C00CE01D9DF6F2D6A6080E257DF8FED9EE25F
S1130C100197F1F700C00000DF91CF911F910F9170
S1130C20FF90EF90DF90CF900895AB01BC0180EA74
S1130C3071CF08951F93CF93DF93C0E6D6E010E100
S1130C401E8381EE21DF1D83DF91CF911F910895D3
S1130C501F93CF93DF93C0E6D6E010E11E8382EEAC
S1130C6013DF1D83DF91CF911F910895CF92EF92EF
S1130C700F931F93CF93DF9386E28093E42082E265
S1130C808093E52083E38093E62084E48093E72047
S1130C9085E58093E82082E0E0E8F6E086832AE6B2
S1130CA02A95F1F700C08FEF93EC29E08150904032
S1130CB02040E1F700C0000029DFBCDFC9DFC0E845
S1130CC0D6E012E01E830F2EF6E0CF2EF02D0F2E6D
S1130CD0FBE0EF2EF02D05E024EE30E240E261E08F
S1130CE080E06EDF1D838FE094E00197F1F700C090
S1130CF000001092E2201092E320DF91CF911F9127
S1130D000F91EF90CF90089545E050E064EE70E2CB
S1130D108AE200DF65E070E084EE90E24CDF6BE095
S1130D2070E083ED90E281DFA3CE089560E787E26F
S1130D30C4DE85FF04C098E0E0E8F6E0978384FD14
S1130D4079CF0895EF92FF920F931F93CF93DF9380
S1130D50CDB7DEB7FE013996619170E0161617061D
S1130D6004F580E090E02FED30E2A0EEB0E2AF01B8
S1130D704E5F5F4FF08001811F2D100FF901E0805D
S1130D801E0D10831C91E12FF0E0EE52FF4DF38213
S1130D9004831E5F1C9301968617970714F4FA01C7
S1130DA0E6CFE091E02081E08E0F8093D520F0E043
S1130DB0EE52FF4D8091DF2081958383DF91CF91A7
S1130DC01F910F91FF90EF900895E3EDF0E28EED07
S1130DD090E21192E817F907E1F7E2EEF0E2808180
S1130DE091810196808391838093DE201092DF208D
S1130DF092E09093E0202FEF2093D3202093D420EF
S1130E009093D5208093D6200895DFDF81E08F93DF
S1130E1093E09F938F9322E02F938F938F939F93CD
S1130E2091DF72DF8DB79EB707968DBF9EBF089581
S1130E300F931F93CF93DF93181619066CF4C9EE22
S1130E40D0E28C0107511F4D699180EA99E00E941C
S1130E50960FC017D107C1F7DF91CF911F910F9162
S1130E600895E0E5F0E0808182608083E1E5F0E0D0
S1130E70808181FFFDCF88ED84BF81E080934000B5
S1130E80E0E5F0E08081827E80830895CF93DF9354
S1130E90E1E8F6E088E0808380938606A1E6B6E088
S1130EA08C9380936506C0E0D6E080E388831C823F
S1130EB080EB8C9382E08083E0E9F6E080818260BD
S1130EC08083E9E8F6E0808181608083EAE8F6E0E7
S1130ED0808181608083DF91CF9108950F931F9368
S1130EE0CF93DF93C0EAD9E08D818F738D8383E044
S1130EF08D8300E018E428EE31E040E052EC61E03C
S1130F0070E080EA99E00E949E0F8C8188608C8357
S1130F108C8180618C83DF91CF911F910F91089513
S1130F20E0E0F9E08081807F826080838181887F36
S1130F30818386818C7F86838681826086838FEF1E
S1130F4099EF86A397A380858E6F808780E099E0D0
S1130F50A5C708950F931F9300E018E428EE31E02D
S1130F6040E052E16AE770E080EC99E065D9E0EC9A
S1130F70F9E08081806180838081806480831F9117
S1130F800F9108956EDFE2EAF0E08081876080834C
S1130F907DDFA4DFC5DFDEDF2BE940E460E874E039
S1130FA08DEA90E292D2E0E8F4E010867894089515
S1130FB01092A82088E480938620109287200895B8
S1130FC028E030E090E8E0E0F6E0492F482321F003
S1130FD040814F7D408303C040814062408344810F
S1130FE04061448345E34A95F1F7000044814F7E14
S1130FF044839695215031092115310531F7E0E0FC
S1131000F6E080818F7D8083848180618483808504
S113101094819F7E948380720895582FE0E0F6E0D7
S113102080818F7D808328E030E080E090E84481F7
S113103040614483408545FD892B44814F7E448330
S11310409695215031092115310589F7513021F444
S113105090910006906203C0909100069F7DE0E0AD
S1131060F6E0908394819061948395E39A95F1F7E7
S1131070000094819F7E948390819F7D90838093D0
S11310807A200895E0E0F6E080818F7D808384817A
S11310908F7E84838AE08A95F1F700C08481806121
S11310A084838AE08A95F1F700C08081806280831E
S11310B08AE08A95F1F700C084818F7E848385E37A
S11310C08A95F1F700008481806184838AE08A959F
S11310D0F1F700C080818F7D80838AE08A95F1F7E3
S11310E000C084818F7E84830895E0E0F6E08081EF
S11310F08F7D808384818F7E848389E09481906155
S113110094839AE09A95F1F700C094819F7E94832A
S11311108150A1F7B7CF0895E8DF8EE151CF08954C
S1131120CF93C82FAFDFCC2319F0C13039F00CC0F6
S113113083E046DF992787FD909508C085E040DF6E
S1131140992787FD909502C080E090E0CF910895A3
S11311502F923F924F925F926F927F928F929F92C3
S1131160AF92BF92CF92DF92EF92FF920F931F93B1
S1131170CF93DF9300D000D0CDB7DEB78C011B0135
S11311802AE037ED43E25CE3FB01608171818281F7
S113119093810E94C5122DEC3CEC4EE152E40E9476
S11311A00D112B013C01F801C080D180E280F38055
S11311B020E030E048EC51E40E940D114B015C0149
S11311C02CEA35EC47EA58E3C701B6010E94C51280
S11311D02AE037ED43E25CE30E940E119B01AC016F
S11311E0C501B4010E94C5124B015C0122EA37EE2D
S11311F04BE356EBC701B6010E94C5129B01AC013B
S1131200C701B6010E94C51269837A838B839C83CC
S113121024E533EE45E25DE3C701B6010E94C51241
S11312209B01AC0169817A818B819C81F7D720E095
S113123030E040E850E4F1D79B01AC01C501B401B2
S1131240EDD76B017C0120E030E048EC52E40E94D1
S1131250C11218165CF02DEC3CEC4CEC5DE3C701BC
S1131260B6010E947211882354F012C00F2EC12CB3
S1131270D12CF8ECEF2EF2E4FF2EF02D09C00F2E46
S1131280FDECCF2EFCECDF2EED2CFDE3FF2EF02D3C
S1131290F1014082518262827382F801C082D1825C
S11312A0E282F3822496CDBFDEBFDF91CF911F91FE
S11312B00F91FF90EF90DF90CF90BF90AF909F90F1
S11312C08F907F906F905F904F903F902F900895F4
S11312D0FF920F931F93CF93DF93EC018B01E0E018
S11312E0F6E0F084F5FAFF24F0F881E096DE8983D5
S11312F081E093DE888381E090DE982FF80180837B
S11313008093C62080917A209813EFDE8F2DDF9191
S1131310CF911F910F91FF900895EF92FF921F9329
S1131320CF93DF931F92CDB7DEB7809146208035EF
S113133061F0843609F45CC08111ADC0F1DE909196
S113134046209F5F90934620AAC0BE016F5F7F4FE7
S113135081E591E2BDDF182F811141C00F2EF1E527
S1131360EF2EF1E2FF2EF02DF7016081718180E014
S113137090E00E940F12F70160837183828393834C
S1131380B7018DE491E2E4DE20E030E048EC52E481
S1131390F70160817181828193810E94C5120E944C
S11313A0DE11CB01AA2797FDA095BA2F8093552172
S11313B090935621A0935721B0935821BF93AF9394
S11313C09F938F9383E290E29F938F9389EE90E2B1
S11313D09F938F930E944A132BDDCDBFDEBF81E024
S11313E09FDE810F909146209F5F9093462057C0C7
S11313F0BE016F5F7F4F8DE491E26ADF182F811188
S113140043C00F2EFDE4EF2EF1E2FF2EF02DF70185
S11314106081718180E090E00E940F12F701608387
S113142071838283938361E571E2C70191DE20E0D9
S113143030E048EC52E4F70160817181828193814C
S11314400E94C512BBD7CB01AA2797FDA095BA2F3E
S11314508093592190935A21A0935B21B0935C21EE
S1131460BF93AF939F938F938FE290E29F938F9359
S113147089EE90E29F938F930E944A13D9DC81E016
S113148080934520CDBFDEBF80E04ADE810F91E02E
S11314909093462004C08F5F809346200FC088231A
S11314A069F023DE87E0ECE3F0E2A9EEB0E201901C
S11314B00D928A95E1F786E090E0BADC0F90DF9117
S11314C0CF911F91FF90EF900895FC016083718389
S11314D04863DB0111964C93A081B18115962C933E
S11314E00190F081E02D81E0848308950F93CF93E0
S11314F0DF93FC01293098F5093098F5878981112B
S113150032C081E0878B108E660F6283222369F0DC
S1131510A42FB52F40E050E08D91EF01C40FD51FEB
S11315208B834F5F5F4F4217B8F3238B048B158A6D
S1131530168A8389882341F082818E7F0190F0810D
S1131540E02D868381E012C08489882371F0828132
S113155081600190F081E02D868381E007C080E006
S113156005C080E003C080E001C081E0DF91CF913D
S11315700F910895FC01A081B18114968C91149768
S113158082FF03C094E0908F02C093E0908F886044
S113159014968C93178A0895CF93DF93FC01938953
S11315A02489A081B18114968C91149784FF07C07B
S11315B083E013968C9385E0808F178A1CC08589FD
S11315C0891758F48589EF01C80FD11D8B811796AF
S11315D08C9385898F5F858B0EC08689821728F44A
S11315E08281816016968C9306C083E013968C9357
S11315F081E0808F178ADF91CF910895FC0186895D
S1131600883070F4A081B18117968C919689DF019E
S1131610A90FB11D1B968C9386898F5F868B08C09A
S1131620A081B18183E013968C9382E0808F178A26
S113163094898689891730F40190F081E02D82E045
S113164083830895A081B18187E013968C9381E010
S1131650808F178A0895DC01ED91FC912481322F4B
S11316603C7011F087CF089526FF02C095CF0895EE
S1131670222314F4C3CF089526E0FC01208F178A97
S113168008959FB7F894E82FF0E0E059FF4F609574
S11316908081682360839FBF08951F920F920FB6C5
S11316A00F9211242F933F934F935F936F937F93E4
S11316B08F939F93AF93BF93EF93FF93E091772022
S11316C0F0917820309709F00995FF91EF91BF913F
S11316D0AF919F918F917F916F915F914F913F91C6
S11316E02F910F900FBE0F901F9018951F920F927D
S11316F00FB60F9211242F933F934F935F936F93E1
S11317007F938F939F93AF93BF93EF93FF93E09156
S11317107520F0917620309709F00995FF91EF91AB
S1131720BF91AF919F918F917F916F915F914F91F5
S11317303F912F910F900FBE0F901F9018951F92FD
S11317400F920FB60F9211242F933F934F935F93F1
S11317506F937F938F939F93AF93BF93EF93FF9375
S1131760E0917320F0917420309709F00995FF916E
S1131770EF91BF91AF919F918F917F916F915F9105
S11317804F913F912F910F900FBE0F901F9018957E
S11317901F920F920FB60F9211242F933F934F93E2
S11317A05F936F937F938F939F93AF93BF93EF93C5
S11317B0FF93E0917120F0917220309709F0099520
S11317C0FF91EF91BF91AF919F918F917F916F9115
S11317D05F914F913F912F910F900FBE0F901F90EB
S11317E018951F920F920FB60F9211242F933F93C7
S11317F04F935F936F937F938F939F93AF93BF9315
S1131800EF93FF93E0916F20F0917020309709F0EF
S11318100995FF91EF91BF91AF919F918F917F9126
S11318206F915F914F913F912F910F900FBE0F9049
S11318301F9018951F920F920FB60F9211242F9399
S11318403F934F935F936F937F938F939F93AF9344
S1131850BF93EF93FF93E0916D20F0916E2030974A
S113186009F00995FF91EF91BF91AF919F918F91ED
S11318707F916F915F914F913F912F910F900FBE88
S11318800F901F9018951F920F920FB60F9211246C
S11318902F933F934F935F936F937F938F939F9374
S11318A0AF93BF93EF93FF93E0916B20F0916C2083
S11318B0309709F00995FF91EF91BF91AF919F91F6
S11318C08F917F916F915F914F913F912F910F90E5
S11318D00FBE0F901F9018951F920F920FB60F9284
S11318E011242F933F934F935F936F937F938F9321
S11318F09F93AF93BF93EF93FF93E0916920F0918F
S11319006A20309709F00995FF91EF91BF91AF914B
S11319109F918F917F916F915F914F913F912F9103
S11319200F900FBE0F901F9018951F920F920FB635
S11319300F9211242F933F934F935F936F937F9351
S11319408F939F93AF93BF93EF93FF93E09167209F
S1131950F0916820309709F00995FF91EF91BF91BC
S1131960AF919F918F917F916F915F914F913F9133
S11319702F910F900FBE0F901F9018951F920F92EA
S11319800FB60F9211242F933F934F935F936F934E
S11319907F938F939F93AF93BF93EF93FF93E091C4
S11319A06520F0916620309709F00995FF91EF9139
S11319B0BF91AF919F918F917F916F915F914F9163
S11319C03F912F910F900FBE0F901F9018951F926B
S11319D00F920FB60F9211242F933F934F935F935F
S11319E06F937F938F939F93AF93BF93EF93FF93E3
S11319F0E0916320F0916420309709F00995FF91FC
S1131A00EF91BF91AF919F918F917F916F915F9172
S1131A104F913F912F910F900FBE0F901F901895EB
S1131A201F920F920FB60F9211242F933F934F934F
S1131A305F936F937F938F939F93AF93BF93EF9332
S1131A40FF93E0916120F0916220309709F00995AD
S1131A50FF91EF91BF91AF919F918F917F916F9182
S1131A605F914F913F912F910F900FBE0F901F9058
S1131A7018951F920F920FB60F9211242F933F9334
S1131A804F935F936F937F938F939F93AF93BF9382
S1131A90EF93FF93E0915F20F0916020309709F07D
S1131AA00995FF91EF91BF91AF919F918F917F9194
S1131AB06F915F914F913F912F910F900FBE0F90B7
S1131AC01F9018951F920F920FB60F9211242F9307
S1131AD03F934F935F936F937F938F939F93AF93B2
S1131AE0BF93EF93FF93E0915D20F0915E203097D8
S1131AF009F00995FF91EF91BF91AF919F918F915B
S1131B007F916F915F914F913F912F910F900FBEF5
S1131B100F901F9018951F920F920FB60F921124D9
S1131B202F933F934F935F936F937F938F939F93E1
S1131B30AF93BF93EF93FF93E0915B20F0915C2010
S1131B40309709F00995FF91EF91BF91AF919F9163
S1131B508F917F916F915F914F913F912F910F9052
S1131B600FBE0F901F9018951F920F920FB60F92F1
S1131B7011242F933F934F935F936F937F938F938E
S1131B809F93AF93BF93EF93FF93E0915920F0910C
S1131B905A20309709F00995FF91EF91BF91AF91C9
S1131BA09F918F917F916F915F914F913F912F9171
S1131BB00F900FBE0F901F9018951F920F920FB6A3
S1131BC00F9211242F933F934F935F936F937F93BF
S1131BD08F939F93AF93BF93EF93FF93E09157201D
S1131BE0F0915820309709F00995FF91EF91BF913A
S1131BF0AF919F918F917F916F915F914F913F91A1
S1131C002F910F900FBE0F901F9018951F920F9257
S1131C100FB60F9211242F933F934F935F936F93BB
S1131C207F938F939F93AF93BF93EF93FF93E09131
S1131C305520F0915620309709F00995FF91EF91C6
S1131C40BF91AF919F918F917F916F915F914F91D0
S1131C503F912F910F900FBE0F901F9018951F92D8
S1131C600F920FB60F9211242F933F934F935F93CC
S1131C706F937F938F939F93AF93BF93EF93FF9350
S1131C80E0915320F0915420309709F00995FF9189
S1131C90EF91BF91AF919F918F917F916F915F91E0
S1131CA04F913F912F910F900FBE0F901F90189559
S1131CB01F920F920FB60F9211242F933F934F93BD
S1131CC05F936F937F938F939F93AF93BF93EF93A0
S1131CD0FF93E0915120F0915220309709F009953B
S1131CE0FF91EF91BF91AF919F918F917F916F91F0
S1131CF05F914F913F912F910F900FBE0F901F90C6
S1131D0018951F920F920FB60F9211242F933F93A1
S1131D104F935F936F937F938F939F93AF93BF93EF
S1131D20EF93FF93E0914F20F0915020309709F00A
S1131D300995FF91EF91BF91AF919F918F917F9101
S1131D406F915F914F913F912F910F900FBE0F9024
S1131D501F9018951F920F920FB60F9211242F9374
S1131D603F934F935F936F937F938F939F93AF931F
S1131D70BF93EF93FF93E0914D20F0914E20309765
S1131D8009F00995FF91EF91BF91AF919F918F91C8
S1131D907F916F915F914F913F912F910F900FBE63
S1131DA00F901F9018951F920F920FB60F92112447
S1131DB02F933F934F935F936F937F938F939F934F
S1131DC0AF93BF93EF93FF93E0914B20F0914C209E
S1131DD0309709F00995FF91EF91BF91AF919F91D1
S1131DE08F917F916F915F914F913F912F910F90C0
S1131DF00FBE0F901F9018951F920F920FB60F925F
S1131E0011242F933F934F935F936F937F938F93FB
S1131E109F93AF93BF93EF93FF93E0914920F09189
S1131E204A20309709F00995FF91EF91BF91AF9146
S1131E309F918F917F916F915F914F913F912F91DE
S1131E400F900FBE0F901F9018951F920F920FB610
S1131E500F9211242F933F934F935F936F937F932C
S1131E608F939F93AF93BF93EF93FF93E09147209A
S1131E70F0914820309709F00995FF91EF91BF91B7
S1131E80AF919F918F917F916F915F914F913F910E
S1131E902F910F900FBE0F901F901895CF93CFB72F
S1131EA0F894282F392F211588E0380739F461E098
S1131EB083E0E7DB64E083E0E4DB2DC0203488E0EA
S1131EC0380739F462E083E0DCDB64E083E0D9DBEB
S1131ED022C0211589E0380739F461E084E0D1DBC0
S1131EE064E084E0CEDB17C0203489E0380739F49D
S1131EF062E084E0C6DB64E084E0C3DB0CC021154F
S1131F003A4039F461E085E0BCDB64E085E0B9DBAC
S1131F1002C0CFBF09C08FB7F894EEE5F1E290811B
S1131F209F5F90838FBFCFBFCF910895FC018181C4
S1131F3085FFFDCF608380E090E008954F925F922B
S1131F406F927F928F929F92AF92BF92CF92DF92C5
S1131F50EF92FF920F931F93CF93DF93EC014A010B
S1131F605B0128013901D901C801689412F8B695BA
S1131F70A795979587951694D1F7B901A801032ED3
S1131F8036E176956795579547953A95D1F7302D73
S1131F902C8122FD08C0B695A795979587957695CF
S1131FA067955795479588159905AA05BB0508F4C3
S1131FB0A2C084169506A606B70608F49EC08C81B6
S1131FC082FD04C0880C991CAA1CBB1CC301B2016D
S1131FD0A50194013DD32F3F31054105510508F476
S1131FE08EC0C12CD12C7601CA9419EF05C02C15D2
S1131FF03D054E055F0568F0CC0CDD1CEE1CFF1C96
S11320001D3F14F46894C0F81F5F173081F7212F27
S11320104EC0212F11230CF04AC0D501C401880FF2
S1132020991FAA1FBB1F880F991FAA1FBB1F880FC8
S1132030991FAA1FBB1F481A590A6A0A7B0A1E3F26
S1132040ECF46DEF7FEF611B710917FD739504C00C
S1132050440C551C661C771C6A95D2F7D501C40143
S1132060B695A79597958795BC01CD01640D751D0F
S1132070861D971DA5019401EBD234C023E0210FE6
S1132080D501C40104C0880F991FAA1FBB1F2A953C
S1132090D2F79C01AD01B695A79597958795BC019C
S11320A0CD01640D751D861D971DD2D21BC02D5FF9
S11320B0D501C40104C0880F991FAA1FBB1F2A950C
S11320C0D2F79C01AD01B695A79597958795BC016C
S11320D0CD01640D751D861D971DBAD2215031099D
S11320E041095109832F8F701295107F182B1F837C
S11320F02E8381E018C080E016C080E014C0D501B2
S1132100C401880F991FAA1FBB1F880F991FAA1FFC
S1132110BB1F880F991FAA1FBB1F481A590A6A0AB6
S11321207B0A19EF8ECFDF91CF911F910F91FF9012
S1132130EF90DF90CF90BF90AF909F908F907F9063
S11321406F905F904F9008950E94C2070E943606D8
S11321500E94D6030E94EF030E948C080E94D807B5
S11321601092200910922109C0E2D9E08881998156
S11321708F3F994FD9F7D1D80E94BD048091442054
S1132180882321F00E940507109244208091792031
S1132190882361F30E94960610927920E7CF1F925C
S11321A00F920FB60F9211242F933F934F935F9387
S11321B06F937F938F939F93AF93BF93EF93FF930B
S11321C08DEA90E248DAFF91EF91BF91AF919F9130
S11321D08F917F916F915F914F913F912F910F90CC
S11321E00FBE0F901F9018951F920F920FB60F926B
S11321F011240F900FBE0F901F9018951F920F92ED
S11322000FB60F9211248F9381E0809379208F91E0
S11322100F900FBE0F901F9018955058BB27AA27F8
S11322200ED075C166D130F06BD120F031F49F3FF0
S113223011F41EF45BC10EF4E095E7FB51C1E92FE4
S113224077D180F3BA17620773078407950718F0EC
S113225071F49EF58FC10EF4E0950B2EBA2FA02DCC
S11322600B01B90190010C01CA01A0011124FF273F
S1132270591B99F0593F50F4503E68F11A16F0403A
S1132280A22F232F342F4427585FF3CF4695379539
S11322902795A795F0405395C9F77EF41F16BA0BFE
S11322A0620B730B840BBAF09150A1F0FF0FBB1FAC
S11322B0661F771F881FC2F70EC0BA0F621F731FF5
S11322C0841F48F4879577956795B795F7959E3F52
S11322D008F0B3CF9395880F08F09927EE0F9795E0
S11322E087950895D9D008F481E008950CD00FC1E2
S11322F007D140F0FED030F021F45F3F19F0F0C078
S1132300511139C1F3C014D198F39923C9F355235A
S1132310B1F3951B550BBB27AA27621773078407D4
S113232038F09F5F5F4F220F331F441FAA1FA9F38A
S113233033D00E2E3AF0E0E830D091505040E6957C
S1132340001CCAF729D0FE2F27D0660F771F881FDD
S1132350BB1F261737074807AB07B0E809F0BB0BCC
S1132360802DBF01FF2793585F4F2AF09E3F5105F0
S113237068F0B6C000C15F3FECF3983EDCF386958D
S113238077956795B795F7959F5FC9F7880F911D66
S11323909695879597F90895E1E0660F771F881F52
S11323A0BB1F621773078407BA0720F0621B730B05
S11323B0840BBA0BEE1F88F7E095089504D0689457
S11323C0B111D9C00895BCD088F09F5790F0B92FAF
S11323D09927B751A0F0D1F0660F771F881F991F76
S11323E01AF0BA95C9F712C0B13081F0C3D0B1E088
S11323F00895C0C0672F782F8827B85F39F0B93F98
S1132400CCF3869577956795B395D9F73EF4909577
S11324108095709561957F4F8F4F9F4F0895E894F5
S113242009C097FB3EF490958095709561957F4F18
S11324308F4F9F4F9923A9F0F92F96E9BB279395C6
S1132440F695879577956795B795F111F8CFFAF4D6
S1132450BB0F11F460FF1BC06F5F7F4F8F4F9F4F07
S113246016C0882311F096E911C0772321F09EE865
S1132470872F762F05C0662371F096E8862F70E0CB
S113248060E02AF09A95660F771F881FDAF7880FA5
S11324909695879597F90895990F0008550FAA0BFB
S11324A0E0E8FEEF16161706E807F907C0F0121663
S11324B01306E407F50798F0621B730B840B950B66
S11324C039F40A2661F0232B242B252B21F40895BB
S11324D00A2609F4A140A6958FEF811D811D089558
S11324E097F99F6780E870E060E008959FEF80ECC3
S11324F0089500240A941616170618060906089566
S113250000240A9412161306140605060895092ECB
S11325100394000C11F4882352F0BB0F40F4BF2B3A
S113252011F460FF04C06F5F7F4F8F4F9F4F08957A
S113253057FD9058440F551F59F05F3F71F0479570
S1132540880F97FB991F61F09F3F79F08795089555
S1132550121613061406551FF2CF4695F1DF08C074
S1132560161617061806991FF1CF86957105610591
S113257008940895E894BB2766277727CB0197F939
S113258008958ADF08F48FEF08950BD0C0CFB1DF30
S113259028F0B6DF18F0952309F0A2CFA7CF1124B5
S11325A0EACFC6DFA0F3959FD1F3950F50E0551FF6
S11325B0629FF001729FBB27F00DB11D639FAA2794
S11325C0F00DB11DAA1F649F6627B00DA11D661FE3
S11325D0829F2227B00DA11D621F739FB00DA11D04
S11325E0621F839FA00D611D221F749F3327A00DBE
S11325F0611D231F849F600D211D822F762F6A2F5A
S113260011249F5750408AF0E1F088234AF0EE0FDE
S1132610FF1FBB1F661F771F881F91505040A9F7EB
S11326209E3F510570F05CCFA6CF5F3FECF3983E20
S1132630DCF3869577956795B795F795E7959F5F52
S1132640C1F7FE2B880F911D9695879597F90895EC
S1132650A1E21A2EAA1BBB1BFD010DC0AA1FBB1FA2
S1132660EE1FFF1FA217B307E407F50720F0A21B14
S1132670B30BE40BF50B661F771F881F991F1A9481
S113268069F760957095809590959B01AC01BD01AB
S1132690CF010895AEE0B0E0EFE4F3E191C20D891B
S11326A01E8986E08C8309831A838FEF9FE78D83CD
S11326B09E83AE01475E5F4F6F89788DCE01019690
S11326C008D0EF81F885E00FF11F10822E96E4E028
S11326D090C2ACE0B0E0EEE6F3E164C27C016B01D1
S11326E08A01FC0116821782838181FFB0C1CE0169
S11326F001964C01F7019381F60193FD859193FFB7
S113270081916F01882309F49EC1853239F493FDC8
S1132710859193FF81916F01853221F4B70190E097
S1132720B1D1E8CF512C312C20E02032A0F48B32EF
S113273069F030F4803259F0833269F420612CC09E
S11327408D3239F0803339F4216026C02260246050
S113275023C0286021C027FD27C030ED380F3A3050
S113276078F426FF06C0FAE05F9E300D1124532E44
S113277013C08AE0389E300D1124332E20620CC021
S11327808E3221F426FD5FC1206406C08C3611F41C
S1132790206802C0883641F4F60193FD859193FFC9
S11327A081916F018111C1CF982F9F7D95549330F2
S11327B028F40C5F1F4FFFE3F9830DC0833631F01B
S11327C0833771F0833509F057C021C0F801808147
S11327D089830E5F1F4F44244394512C540114C029
S11327E03801F2E06F0E711CF801A080B18026FF61
S11327F003C0652D70E002C06FEF7FEFC5012C8729
S113280036D12C0183012C852F77222E16C0380156
S1132810F2E06F0E711CF801A080B18026FF03C0A6
S1132820652D70E002C06FEF7FEFC5012C8714D1D6
S11328302C012C852068222E830123FC19C0832DB2
S113284090E048165906A0F4B70180E290E01AD14E
S11328503A94F5CFF50127FC859127FE81915F011C
S1132860B70190E00FD131103A94F1E04F1A5108BA
S11328704114510479F7DEC0843611F0893631F5FC
S1132880F80127FF07C060817181828193810C5F09
S11328901F4F08C060817181882777FD8095982F2C
S11328A00E5F1F4F2F76B22E97FF09C0909580952B
S11328B0709561957F4F8F4F9F4F2068B22E2AE00D
S11328C030E0A40111D1A82EA81843C0853729F4FB
S11328D02F7EB22E2AE030E025C0F22FF97FBF2EE2
S11328E08F36C1F018F4883579F0ADC0803719F00F
S11328F0883721F0A8C02F2F2061B22EB4FE0DC05E
S11329008B2D8460B82E09C024FF0AC09F2F9660C7
S1132910B92E06C028E030E005C020E130E002C056
S113292020E132E0F801B7FE07C060817181828145
S113293093810C5F1F4F06C06081718180E090E03D
S11329400E5F1F4FA401D0D0A82EA818FB2DFF772F
S1132950BF2EB6FE0BC02B2D2E7FA51450F4B4FE53
S11329600AC0B2FC08C02B2D2E7E05C07A2C2B2D5C
S113297003C07A2C01C0752C24FF0DC0FE01EA0DA2
S1132980F11D8081803311F4297E09C022FF06C025
S11329907394739404C0822F867809F0739423FD92
S11329A012C020FF06C05A2C731418F4530C571885
S11329B0732C731460F4B70180E290E02C8762D02A
S11329C073942C85F6CF731410F4371801C0312C8E
S11329D024FF11C0B70180E390E02C8753D02C85ED
S11329E022FF16C021FF03C088E590E002C088E7FB
S11329F090E0B7010CC0822F867851F021FD02C00F
S1132A0080E201C08BE227FD8DE2B70190E03AD06D
S1132A10A51430F4B70180E390E034D05A94F8CF91
S1132A20AA94F401EA0DF11D8081B70190E02AD047
S1132A30A110F6CF332009F45DCEB70180E290E017
S1132A4021D03A94F7CFF7018681978102C08FEFA6
S1132A509FEF2C96E2E1BFC0FC01059061507040ED
S1132A600110D8F7809590958E0F9F1F0895FC0153
S1132A706150704001900110D8F7809590958E0FA9
S1132A809F1F08950F931F93CF93DF93182F092F40
S1132A90EB018B8181FD03C08FEF9FEF20C082FF8C
S1132AA010C04E815F812C813D81421753077CF415
S1132AB0E881F9819F012F5F3F4F28833983108379
S1132AC006C0E885F985812F0995892B29F72E8180
S1132AD03F812F5F3F4F2E833F83812F902FDF91C4
S1132AE0CF911F910F910895FA01AA27283051F12F
S1132AF0203181F1E8946F936E7F6E5F7F4F8F4F2B
S1132B009F4FAF4FB1E03ED0B4E03CD0670F781F89
S1132B10891F9A1FA11D680F791F8A1F911DA11D6E
S1132B206A0F711D811D911DA11D20D009F46894A7
S1132B303F912AE0269F11243019305D3193DEF64F
S1132B40CF010895462F4770405D4193B3E00FD005
S1132B50C9F7F6CF462F4F70405D4A3318F0495DF0
S1132B6031FD4052419302D0A9F7EACFB4E0A695D3
S1132B709795879577956795BA95C9F700976105F5
S1132B80710508959B01AC010A2E0694579547954B
S1132B9037952795BA95C9F7620F731F841F951F40
S1132BA0A01D08952F923F924F925F926F927F9251
S1132BB08F929F92AF92BF92CF92DF92EF92FF9249
S1132BC00F931F93CF93DF93CDB7DEB7CA1BDB0BF5
S1132BD0CDBFDEBF09942A88398848885F846E8413
S1132BE07D848C849B84AA84B984C884DF80EE802D
S1132BF0FD800C811B81AA81B981CE0FD11DCDBF6F
S10D2C00DEBFED010895F894FFCF44
S1132C0A0150726573737572653A20256C640D0000
S1132C1A54656D70657261747572653A20256C64C9
S1132C2A0D0D0054656D703A20256C64200D004822
S1132C3A756D693A20256C64200D0D006572726FFA
S1072C4A720D000003
S9030000FC
