S00F00004B4E32435361742E73726563DF
S1130000FDC0000018C1000016C1000014C10000AA
S113001012C1000010C100000EC100000CC100009C
S11300200AC1000008C1000006C1000004C10000AC
S113003002C1000000C10000CCC40000F3C40000F1
S11300401AC5000041C5000068C500008FC5000046
S1130050B6C50000DDC5000004C600002BC60000C4
S1130060EAC00000E8C00000E6C00000E4C00000F0
S1130070E2C00000E0C00000DEC00000DCC0000000
S1130080DAC00000D8C00000D6C00000D4C0000010
S1130090D2C00000D0C00000CEC00000CCC0000020
S11300A0CAC00000C8C00000C6C00000C4C0000030
S11300B0C2C00000C0C00000BEC0000095C7000060
S11300C0BCC70000E3C700000C946F080C949808A8
S11300D00C94C108B0C00000AEC00000ACC0000069
S11300E0AAC00000A8C00000A6C00000A4C0000070
S11300F0A2C00000A0C000009EC000009CC0000080
S11301009AC0000098C0000096C0000094C000008F
S113011092C0000090C000008EC000008CC000009F
S11301208AC0000088C0000086C0000084C00000AF
S113013082C000000C94500AE6C500000DC6000001
S113014034C600005BC6000082C60000A9C60000D9
S1130150D0C60000F7C600001EC700006CC0000037
S11301606AC0000068C0000066C0000064C00000EF
S113017062C0000060C000005EC000005CC00000FF
S11301805AC0000058C0000056C0000054C000000F
S113019052C0000050C000004EC000004CC000001F
S11301A04AC0000048C0000046C0000044C000002F
S11301B042C0000040C000003EC000003CC000003F
S11301C03AC0000038C0000036C0000034C000004F
S11301D032C0000030C000002EC000002CC000005F
S11301E02AC0000028C0000026C0000024C000006F
S11301F022C0000020C000001EC0000011241FBE49
S1130200CFEFCDBFDFE2DEBF10E2A0E0B0E2E4ED6D
S1130210FDE102C005900D92A032B107D9F721E2A9
S1130220A0E2B0E201C01D92A631B207E1F70E943C
S1130230400A0C94E80EE4CECF92DF92EF92FF9244
S11302400F931F93CF93DF93EC016A017B01DB01D2
S1130250CA010197A109B109BC01CD01600F711F49
S1130260821F931FA70196010E940D0C21383105AE
S113027041055105F8F4213460F4213260F4213150
S113028060F4293060F4253060F4233060F090E0AD
S11302900BC093E009C092E007C092E805C091E06A
S11302A003C091E801C090E888818C77892B88830A
S11302B081E001C08FEFDF91CF911F910F91FF90EB
S11302C0EF90DF90CF9008950F931F93CF93DF9318
S11302D01816190664F4CAE9D0E28C0106561F4DBB
S11302E0699180EA99E0BED7C017D107C9F7DF91B9
S11302F0CF911F910F910895E0E5F0E08081826035
S11303008083E1E5F0E0808181FFFDCF88ED84BF4B
S113031081E080934000E0E5F0E08081827E80838C
S11303200895CF93DF93E1E8F6E088E0808380933B
S11303308606A1E6B6E08C9380936506C0E0D6E01D
S113034080E388831C8280EB8C9382E08083E0E9E5
S1130350F6E0808182608083E9E8F6E08081816054
S11303608083EAE8F6E0808181608083DF91CF9129
S113037008950F931F93CF93DF93C0EAD9E08D8143
S11303808F738D8383E08D8300E018E428EE31E0E1
S113039040E052EC61E070E080EA99E06BD78C8138
S11303A088608C838C8180618C83DF91CF911F91D5
S11303B00F910895E0E0F9E08081807F846080837C
S11303C08181887F818386818C7F86838681826018
S11303D086838FE39CE986A397A380858E6F8087AD
S11303E080E099E0F7C608950F931F9300E018E4A6
S11303F028EE31E040E052E16AE770E080EC99E0F9
S11304001BDFE0ECF9E0808180618083808180647F
S113041080831F910F9108956FDFE2EAF0E08081FD
S1130420876080837EDFA5DFC5DFDEDF2BE940E464
S113043060E874E080E890E2AFD2E0E8F4E010868F
S11304407894089528E030E090E8E0E0F6E0492F61
S1130450482321F040814F7D408303C040814062A6
S1130460408344814061448345E34A95F1F70000A9
S113047044814F7E448396952150310921153105DD
S113048031F7E0E0F6E080818F7D808384818061B4
S11304908483808594819F7E948380720895582FED
S11304A0E0E0F6E080818F7D808328E030E080E02A
S11304B090E8448140614483408545FD892B448113
S11304C04F7E44839695215031092115310589F7D2
S11304D0513021F490910006906203C0909100067F
S11304E09F7DE0E0F6E0908394819061948395E3AE
S11304F09A95F1F7000094819F7E948390819F7D6B
S11305009083809306210895E0E0F6E080818F7D5A
S1130510808384818F7E84838AE08A95F1F700C08A
S11305208481806184838AE08A95F1F700C08081A8
S1130530806280838AE08A95F1F700C084818F7E8F
S1130540848385E38A95F1F7000084818061848344
S11305508AE08A95F1F700C080818F7D80838AE0EC
S11305608A95F1F700C084818F7E84830895E0E04A
S1130570F6E080818F7D808384818F7E848389E00F
S11305809481906194839AE09A95F1F700C09481E4
S11305909F7E94838150A1F7B7CF0895E8DF8EE161
S11305A051CF0895CF93C82FAFDFCC2319F0C130BA
S11305B039F00CC083E046DF992787FD909508C089
S11305C085E040DF992787FD909502C080E090E0A8
S11305D0CF9108952F923F924F925F926F927F92A4
S11305E08F929F92AF92BF92CF92DF92EF92FF923F
S11305F00F931F93CF93DF9300D000D0CDB7DEB716
S11306008C011B012AE037ED43E25CE3FB016081CE
S11306107181828193810E94AA0B2DEC3CEC4EE106
S113062052E448D72B013C01F801C080D180E2801C
S1130630F38020E030E048EC51E43CD74B015C010E
S11306402CEA35EC47EA58E3C701B6010E94AA0B2D
S11306502AE037ED43E25CE32ED79B01AC01C501F0
S1130660B4010E94AA0B4B015C0122EA37EE4BE372
S113067056EBC701B6010E94AA0B9B01AC01C7014E
S1130680B6010E94AA0B69837A838B839C8324E539
S113069033EE45E25DE3C701B6010E94AA0B9B015C
S11306A0AC0169817A818B819C8105D720E030E09F
S11306B040E850E4FFD69B01AC01C501B401FBD670
S11306C06B017C0120E030E048EC52E40E94A60B70
S11306D0181654F02DEC3CEC4CEC5DE3C701B6016C
S11306E04ED7882354F012C00F2EC12CD12CF8EC15
S11306F0EF2EF2E4FF2EF02D09C00F2EFDECCF2ECD
S1130700FCECDF2EED2CFDE3FF2EF02DF1014082F9
S1130710518262827382F801C082D182E282F382C2
S11307202496CDBFDEBFDF91CF911F910F91FF9033
S1130730EF90DF90CF90BF90AF909F908F907F907D
S11307406F905F904F903F902F900895FF920F937A
S11307501F93CF93DF93EC018B01E0E0F6E0F0848C
S1130760F5FAFF24F0F881E09ADE898381E097DED0
S1130770888381E094DE982FF801808380930F2191
S1130780809106219813F3DE8F2DDF91CF911F9175
S11307900F91FF900895EF92FF921F93CF93DF93F1
S11307A01F92CDB7DEB71092FE201092FF20109258
S11307B0022110920321809120208032C9F08832D6
S11307C009F474C08111CEC0EDDE182F20E33DE0A2
S11307D040E020939A2030939B2040939C2082E019
S11307E090E072DD809120208F5F80932020BEC036
S11307F0BE016F5F7F4F82E091E2A8DF182F811165
S11308003DC00F2EF2E0EF2EF1E2FF2EF02DF701A6
S11308106081718180E090E0E7D6F70160837183A5
S113082082839383B7018EEF90E2D4DE20E030E040
S113083048EC52E4F70160817181828193818AD707
S1130840A2D6CB01AA2797FDA095BA2F80930721A2
S113085090930821A0930921B0930A21BF93AF93E9
S11308609F938F9380E090E29F938F938AE990E225
S11308709F938F93F4D728DDCDBFDEBF81E092DE56
S1130880180F43E352E36DE070E040939A205093D5
S11308909B2060939C2070939D2083E090E014DD66
S11308A0809120208F5F8093202060C0BE016F5F05
S11308B07F4F8EEF90E24ADF182F44E350E36DE060
S11308C070E040939A2050939B2060939C207093F7
S11308D09D2083E090E0F8DC11113DC00F2EFEEF67
S11308E0EF2EF0E2FF2EF02DF7016081718180E0A0
S11308F090E07AD6F701608371838283938362E008
S113090071E2C70167DE20E030E048EC52E4F70111
S113091060817181828193811DD735D6CB01AA274D
S113092097FDA095BA2F80930B2190930C21A0934F
S11309300D21B0930E21BF93AF939F938F938CE0BF
S113094090E29F938F938AE990E29F938F9387D746
S1130950BBDCCDBFDEBF80E025DE180F81E08093D5
S1130960202004C08F5F809320200FC0112369F0E2
S1130970FEDD87E0E8E1F0E2AAE9B0E201900D9241
S11309808A95E1F786E090E09FDC0F90DF91CF91AC
S11309901F91FF90EF900895FC0160837183486379
S11309A0DB0111964C93A081B18115962C93019093
S11309B0F081E02D81E0848308959FB7F894E82FB7
S11309C0F0E0E059FF4F60958081682360839FBF0A
S11309D008951F920F920FB60F9211242F933F93F5
S11309E04F935F936F937F938F939F93AF93BF9333
S11309F0EF93FF93E0915120F0915220309709F04A
S1130A000995FF91EF91BF91AF919F918F917F9144
S1130A106F915F914F913F912F910F900FBE0F9067
S1130A201F9018951F920F920FB60F9211242F93B7
S1130A303F934F935F936F937F938F939F93AF9362
S1130A40BF93EF93FF93E0914F20F09150203097A4
S1130A5009F00995FF91EF91BF91AF919F918F910B
S1130A607F916F915F914F913F912F910F900FBEA6
S1130A700F901F9018951F920F920FB60F9211248A
S1130A802F933F934F935F936F937F938F939F9392
S1130A90AF93BF93EF93FF93E0914D20F0914E20DD
S1130AA0309709F00995FF91EF91BF91AF919F9114
S1130AB08F917F916F915F914F913F912F910F9003
S1130AC00FBE0F901F9018951F920F920FB60F92A2
S1130AD011242F933F934F935F936F937F938F933F
S1130AE09F93AF93BF93EF93FF93E0914B20F091CB
S1130AF04C20309709F00995FF91EF91BF91AF9188
S1130B009F918F917F916F915F914F913F912F9121
S1130B100F900FBE0F901F9018951F920F920FB653
S1130B200F9211242F933F934F935F936F937F936F
S1130B308F939F93AF93BF93EF93FF93E0914920DB
S1130B40F0914A20309709F00995FF91EF91BF91F8
S1130B50AF919F918F917F916F915F914F913F9151
S1130B602F910F900FBE0F901F9018951F920F9208
S1130B700FB60F9211242F933F934F935F936F936C
S1130B807F938F939F93AF93BF93EF93FF93E091E2
S1130B904720F0914820309709F00995FF91EF9193
S1130BA0BF91AF919F918F917F916F915F914F9181
S1130BB03F912F910F900FBE0F901F9018951F9289
S1130BC00F920FB60F9211242F933F934F935F937D
S1130BD06F937F938F939F93AF93BF93EF93FF9301
S1130BE0E0914520F0914620309709F00995FF9156
S1130BF0EF91BF91AF919F918F917F916F915F9191
S1130C004F913F912F910F900FBE0F901F90189509
S1130C101F920F920FB60F9211242F933F934F936D
S1130C205F936F937F938F939F93AF93BF93EF9350
S1130C30FF93E0914320F0914420309709F0099507
S1130C40FF91EF91BF91AF919F918F917F916F91A0
S1130C505F914F913F912F910F900FBE0F901F9076
S1130C6018951F920F920FB60F9211242F933F9352
S1130C704F935F936F937F938F939F93AF93BF93A0
S1130C80EF93FF93E0914120F0914220309709F0D7
S1130C900995FF91EF91BF91AF919F918F917F91B2
S1130CA06F915F914F913F912F910F900FBE0F90D5
S1130CB01F9018951F920F920FB60F9211242F9325
S1130CC03F934F935F936F937F938F939F93AF93D0
S1130CD0BF93EF93FF93E0913F20F0914020309732
S1130CE009F00995FF91EF91BF91AF919F918F9179
S1130CF07F916F915F914F913F912F910F900FBE14
S1130D000F901F9018951F920F920FB60F921124F7
S1130D102F933F934F935F936F937F938F939F93FF
S1130D20AF93BF93EF93FF93E0913D20F0913E206A
S1130D30309709F00995FF91EF91BF91AF919F9181
S1130D408F917F916F915F914F913F912F910F9070
S1130D500FBE0F901F9018951F920F920FB60F920F
S1130D6011242F933F934F935F936F937F938F93AC
S1130D709F93AF93BF93EF93FF93E0913B20F09148
S1130D803C20309709F00995FF91EF91BF91AF9105
S1130D909F918F917F916F915F914F913F912F918F
S1130DA00F900FBE0F901F9018951F920F920FB6C1
S1130DB00F9211242F933F934F935F936F937F93DD
S1130DC08F939F93AF93BF93EF93FF93E091392059
S1130DD0F0913A20309709F00995FF91EF91BF9176
S1130DE0AF919F918F917F916F915F914F913F91BF
S1130DF02F910F900FBE0F901F9018951F920F9276
S1130E000FB60F9211242F933F934F935F936F93D9
S1130E107F938F939F93AF93BF93EF93FF93E0914F
S1130E203720F0913820309709F00995FF91EF9120
S1130E30BF91AF919F918F917F916F915F914F91EE
S1130E403F912F910F900FBE0F901F9018951F92F6
S1130E500F920FB60F9211242F933F934F935F93EA
S1130E606F937F938F939F93AF93BF93EF93FF936E
S1130E70E0913520F0913620309709F00995FF91E3
S1130E80EF91BF91AF919F918F917F916F915F91FE
S1130E904F913F912F910F900FBE0F901F90189577
S1130EA01F920F920FB60F9211242F933F934F93DB
S1130EB05F936F937F938F939F93AF93BF93EF93BE
S1130EC0FF93E0913320F0913420309709F0099595
S1130ED0FF91EF91BF91AF919F918F917F916F910E
S1130EE05F914F913F912F910F900FBE0F901F90E4
S1130EF018951F920F920FB60F9211242F933F93C0
S1130F004F935F936F937F938F939F93AF93BF930D
S1130F10EF93FF93E0913120F0913220309709F064
S1130F200995FF91EF91BF91AF919F918F917F911F
S1130F306F915F914F913F912F910F900FBE0F9042
S1130F401F9018951F920F920FB60F9211242F9392
S1130F503F934F935F936F937F938F939F93AF933D
S1130F60BF93EF93FF93E0912F20F09130203097BF
S1130F7009F00995FF91EF91BF91AF919F918F91E6
S1130F807F916F915F914F913F912F910F900FBE81
S1130F900F901F9018951F920F920FB60F92112465
S1130FA02F933F934F935F936F937F938F939F936D
S1130FB0AF93BF93EF93FF93E0912D20F0912E20F8
S1130FC0309709F00995FF91EF91BF91AF919F91EF
S1130FD08F917F916F915F914F913F912F910F90DE
S1130FE00FBE0F901F9018951F920F920FB60F927D
S1130FF011242F933F934F935F936F937F938F931A
S11310009F93AF93BF93EF93FF93E0912B20F091C5
S11310102C20309709F00995FF91EF91BF91AF9182
S11310209F918F917F916F915F914F913F912F91FC
S11310300F900FBE0F901F9018951F920F920FB62E
S11310400F9211242F933F934F935F936F937F934A
S11310508F939F93AF93BF93EF93FF93E0912920D6
S1131060F0912A20309709F00995FF91EF91BF91F3
S1131070AF919F918F917F916F915F914F913F912C
S11310802F910F900FBE0F901F9018951F920F92E3
S11310900FB60F9211242F933F934F935F936F9347
S11310A07F938F939F93AF93BF93EF93FF93E091BD
S11310B02720F0912820309709F00995FF91EF91AE
S11310C0BF91AF919F918F917F916F915F914F915C
S11310D03F912F910F900FBE0F901F9018951F9264
S11310E00F920FB60F9211242F933F934F935F9358
S11310F06F937F938F939F93AF93BF93EF93FF93DC
S1131100E0912520F0912620309709F00995FF9170
S1131110EF91BF91AF919F918F917F916F915F916B
S11311204F913F912F910F900FBE0F901F901895E4
S11311301F920F920FB60F9211242F933F934F9348
S11311405F936F937F938F939F93AF93BF93EF932B
S1131150FF93E0912320F0912420309709F0099522
S1131160FF91EF91BF91AF919F918F917F916F917B
S11311705F914F913F912F910F900FBE0F901F9051
S113118018951F920F920FB60F9211242F933F932D
S11311904F935F936F937F938F939F93AF93BF937B
S11311A0EF93FF93E0912120F0912220309709F0F2
S11311B00995FF91EF91BF91AF919F918F917F918D
S11311C06F915F914F913F912F910F900FBE0F90B0
S11311D01F901895CF93CFB7F894282F392F211546
S11311E088E0380739F461E083E0E7DB64E083E01A
S11311F0E4DB2DC0203488E0380739F462E083E072
S1131200DCDB64E083E0D9DB22C0211589E0380708
S113121039F461E084E0D1DB64E084E0CEDB17C024
S1131220203489E0380739F462E084E0C6DB64E006
S113123084E0C3DB0CC021153A4039F461E085E059
S1131240BCDB64E085E0B9DB02C0CFBF09C08FB767
S1131250F894E1E1F1E290819F5F90838FBFCFBF6B
S1131260CF910895FC01818185FFFDCF608380E0EB
S113127090E008954F925F926F927F928F929F9227
S1131280AF92BF92CF92DF92EF92FF920F931F9390
S1131290CF93DF93EC014A015B0128013901D901A5
S11312A0C801689412F8B695A795979587951694F2
S11312B0D1F7B901A801032E36E1769567955795C4
S11312C047953A95D1F7302D2C8122FD08C0B6956B
S11312D0A79597958795769567955795479588151A
S11312E09905AA05BB0508F4A2C084169506A606AE
S11312F0B70608F49EC08C8182FD04C0880C991C3A
S1131300AA1CBB1CC301B201A501940186D22F3FC4
S113131031054105510508F48EC0C12CD12C76014C
S1131320CA9419EF05C02C153D054E055F0568F0FC
S1131330CC0CDD1CEE1CFF1C1D3F14F46894C0F89B
S11313401F5F173081F7212F4EC0212F11230CF07E
S11313504AC0D501C401880F991FAA1FBB1F880F5B
S1131360991FAA1FBB1F880F991FAA1FBB1F481ACA
S1131370590A6A0A7B0A1E3FECF46DEF7FEF611B8A
S1131380710917FD739504C0440C551C661C771C29
S11313906A95D2F7D501C401B695A7959795879517
S11313A0BC01CD01640D751D861D971DA501940119
S11313B034D234C023E0210FD501C40104C0880F06
S11313C0991FAA1FBB1F2A95D2F79C01AD01B695A0
S11313D0A79597958795BC01CD01640D751D861D54
S11313E0971D1BD21BC02D5FD501C40104C0880FFB
S11313F0991FAA1FBB1F2A95D2F79C01AD01B69570
S1131400A79597958795BC01CD01640D751D861D23
S1131410971D03D22150310941095109832F8F703F
S11314201295107F182B1F832E8381E018C080E053
S113143016C080E014C0D501C401880F991FAA1FEB
S1131440BB1F880F991FAA1FBB1F880F991FAA1FB4
S1131450BB1F481A590A6A0A7B0A19EF8ECFDF911B
S1131460CF911F910F91FF90EF90DF90CF90BF909D
S1131470AF909F908F907F906F905F904F90089562
S11314800E940C028BD81092200910922109C0E20C
S1131490D9E0888199818F339C49D9F77CD9F9CFD8
S11314A01F920F920FB60F9211240F900FBE0F9040
S11314B01F9018955058BB27AA270ED00DC1FED0F7
S11314C030F003D120F031F49F3F11F41EF4F3C047
S11314D00EF4E095E7FBE9C0E92F0FD180F3BA17CA
S11314E0620773078407950718F071F49EF527C106
S11314F00EF4E0950B2EBA2FA02D0B01B90190012B
S11315000C01CA01A0011124FF27591B99F0593F6E
S113151050F4503E68F11A16F040A22F232F342FB6
S11315204427585FF3CF469537952795A795F04004
S11315305395C9F77EF41F16BA0B620B730B840B19
S1131540BAF09150A1F0FF0FBB1F661F771F881FD1
S1131550C2F70EC0BA0F621F731F841F48F4879529
S113156077956795B795F7959E3F08F0B3CF939518
S1131570880F08F09927EE0F97958795089571D0F5
S113158008F481E0089504D06894B111D9C0089595
S1131590BCD088F09F5790F0B92F9927B751A0F08D
S11315A0D1F0660F771F881F991F1AF0BA95C9F7F3
S11315B012C0B13081F0C3D0B1E00895C0C0672F2C
S11315C0782F8827B85F39F0B93FCCF386957795A3
S11315D06795B395D9F73EF490958095709561958C
S11315E07F4F8F4F9F4F0895E89409C097FB3EF4B7
S11315F090958095709561957F4F8F4F9F4F99235C
S1131600A9F0F92F96E9BB279395F69587957795D9
S11316106795B795F111F8CFFAF4BB0F11F460FF99
S11316201BC06F5F7F4F8F4F9F4F16C0882311F0F1
S113163096E911C0772321F09EE8872F762F05C005
S1131640662371F096E8862F70E060E02AF09A95A0
S1131650660F771F881FDAF7880F9695879597F995
S11316600895990F0008550FAA0BE0E8FEEF16162F
S11316701706E807F907C0F012161306E407F50782
S113168098F0621B730B840B950B39F40A2661F0F6
S1131690232B242B252B21F408950A2609F4A14099
S11316A0A6958FEF811D811D089597F99F6780E8A6
S11316B070E060E008959FEF80EC089500240A94A0
S11316C01616170618060906089500240A94121619
S11316D01306140605060895092E0394000C11F44C
S11316E0882352F0BB0F40F4BF2B11F460FF04C0F9
S11316F06F5F7F4F8F4F9F4F089557FD9058440F52
S1131700551F59F05F3F71F04795880F97FB991F5C
S113171061F09F3F79F08795089512161306140619
S1131720551FF2CF4695F1DF08C0161617061806A6
S1131730991FF1CF86957105610508940895E89481
S1131740BB2766277727CB0197F908958ADF08F42A
S11317508FEF08950BD0C0CFB1DF28F0B6DF18F0BB
S1131760952309F0A2CFA7CF1124EACFC6DFA0F3B7
S1131770959FD1F3950F50E0551F629FF001729F22
S1131780BB27F00DB11D639FAA27F00DB11DAA1F41
S1131790649F6627B00DA11D661F829F2227B00D8E
S11317A0A11D621F739FB00DA11D621F839FA00D19
S11317B0611D221F749F3327A00D611D231F849F69
S11317C0600D211D822F762F6A2F11249F575040C0
S11317D08AF0E1F088234AF0EE0FFF1FBB1F661F5B
S11317E0771F881F91505040A9F79E3F510570F014
S11317F05CCFA6CF5F3FECF3983EDCF386957795FC
S11318006795B795F795E7959F5FC1F7FE2B880F0E
S1131810911D9695879597F90895A1E21A2EAA1B12
S1131820BB1BFD010DC0AA1FBB1FEE1FFF1FA2178C
S1131830B307E407F50720F0A21BB30BE40BF50B89
S1131840661F771F881F991F1A9469F76095709512
S1131850809590959B01AC01BD01CF010895AEE048
S1131860B0E0E4E3FCE091C20D891E8986E08C833C
S113187009831A838FEF9FE78D839E83AE01475EB2
S11318805F4F6F89788DCE01019608D0EF81F8857E
S1131890E00FF11F10822E96E4E090C2ACE0B0E0BD
S11318A0E3E5FCE064C27C016B018A01FC01168261
S11318B01782838181FFB0C1CE0101964C01F701EB
S11318C09381F60193FD859193FF81916F018823A4
S11318D009F49EC1853239F493FD859193FF81917A
S11318E06F01853221F4B70190E0B1D1E8CF512CDA
S11318F0312C20E02032A0F48B3269F030F48032B5
S113190059F0833269F420612CC08D3239F0803370
S113191039F4216026C02260246023C0286021C0DD
S113192027FD27C030ED380F3A3078F426FF06C083
S1131930FAE05F9E300D1124532E13C08AE0389EC6
S1131940300D1124332E20620CC08E3221F426FD7A
S11319505FC1206406C08C3611F4206802C088364A
S113196041F4F60193FD859193FF81916F018111FB
S1131970C1CF982F9F7D9554933028F40C5F1F4F4F
S1131980FFE3F9830DC0833631F0833771F083357B
S113199009F057C021C0F801808189830E5F1F4F71
S11319A044244394512C540114C03801F2E06F0EC6
S11319B0711CF801A080B18026FF03C0652D70E082
S11319C002C06FEF7FEFC5012C8736D12C01830154
S11319D02C852F77222E16C03801F2E06F0E711C71
S11319E0F801A080B18026FF03C0652D70E002C01D
S11319F06FEF7FEFC5012C8714D12C012C85206853
S1131A00222E830123FC19C0832D90E04816590629
S1131A10A0F4B70180E290E01AD13A94F5CFF50131
S1131A2027FC859127FE81915F01B70190E00FD1DA
S1131A3031103A94F1E04F1A51084114510479F7E6
S1131A40DEC0843611F0893631F5F80127FF07C06E
S1131A5060817181828193810C5F1F4F08C0608116
S1131A607181882777FD8095982F0E5F1F4F2F7601
S1131A70B22E97FF09C090958095709561957F4F20
S1131A808F4F9F4F2068B22E2AE030E0A40111D17D
S1131A90A82EA81843C0853729F42F7EB22E2AE039
S1131AA030E025C0F22FF97FBF2E8F36C1F018F435
S1131AB0883579F0ADC0803719F0883721F0A8C097
S1131AC02F2F2061B22EB4FE0DC08B2D8460B82E52
S1131AD009C024FF0AC09F2F9660B92E06C028E0D3
S1131AE030E005C020E130E002C020E132E0F8013E
S1131AF0B7FE07C060817181828193810C5F1F4FA3
S1131B0006C06081718180E090E00E5F1F4FA401E8
S1131B10D0D0A82EA818FB2DFF77BF2EB6FE0BC081
S1131B202B2D2E7FA51450F4B4FE0AC0B2FC08C0BD
S1131B302B2D2E7E05C07A2C2B2D03C07A2C01C0B0
S1131B40752C24FF0DC0FE01EA0DF11D8081803348
S1131B5011F4297E09C022FF06C07394739404C053
S1131B60822F867809F0739423FD12C020FF06C0EB
S1131B705A2C731418F4530C5718732C731460F400
S1131B80B70180E290E02C8762D073942C85F6CF65
S1131B90731410F4371801C0312C24FF11C0B7019D
S1131BA080E390E02C8753D02C8522FF16C021FFC0
S1131BB003C088E590E002C088E790E0B7010CC05C
S1131BC0822F867851F021FD02C080E201C08BE2B1
S1131BD027FD8DE2B70190E03AD0A51430F4B701A7
S1131BE080E390E034D05A94F8CFAA94F401EA0D3B
S1131BF0F11D8081B70190E02AD0A110F6CF3320E7
S1131C0009F45DCEB70180E290E021D03A94F7CF99
S1131C10F7018681978102C08FEF9FEF2C96E2E156
S1131C20BFC0FC010590615070400110D8F7809549
S1131C3090958E0F9F1F0895FC0161507040019094
S1131C400110D8F7809590958E0F9F1F08950F93DC
S1131C501F93CF93DF93182F092FEB018B8181FD05
S1131C6003C08FEF9FEF20C082FF10C04E815F81C1
S1131C702C813D81421753077CF4E881F9819F014F
S1131C802F5F3F4F28833983108306C0E885F98589
S1131C90812F0995892B29F72E813F812F5F3F4F93
S1131CA02E833F83812F902FDF91CF911F910F912E
S1131CB00895FA01AA27283051F1203181F1E894DE
S1131CC06F936E7F6E5F7F4F8F4F9F4FAF4FB1E02B
S1131CD03ED0B4E03CD0670F781F891F9A1FA11D26
S1131CE0680F791F8A1F911DA11D6A0F711D811D27
S1131CF0911DA11D20D009F468943F912AE0269FEC
S1131D0011243019305D3193DEF6CF010895462F4A
S1131D104770405D4193B3E00FD0C9F7F6CF462F2B
S1131D204F70405D4A3318F0495D31FD4052419394
S1131D3002D0A9F7EACFB4E0A69597958795779551
S1131D406795BA95C9F700976105710508959B01D8
S1131D50AC010A2E06945795479537952795BA9561
S1131D60C9F7620F731F841F951FA01D08952F923A
S1131D703F924F925F926F927F928F929F92AF9217
S1131D80BF92CF92DF92EF92FF920F931F93CF9364
S1131D90DF93CDB7DEB7CA1BDB0BCDBFDEBF099423
S1131DA02A88398848885F846E847D848C849B84E7
S1131DB0AA84B984C884DF80EE80FD800C811B81F5
S1131DC0AA81B981CE0FD11DCDBFDEBFED0108952B
S1071DD0F894FFCFB1
S1131DD454656D703A20256C64200D0048756D6956
S1131DE43A20256C64200D006572726F720D000038
S9030000FC
