S00F00004B4E32435361742E73726563DF
S1130000FDC0000018C1000016C1000014C10000AA
S113001012C1000010C100000EC100000CC100009C
S11300200AC1000008C1000006C1000004C10000AC
S113003002C100000C94BE100C943D0B0C94660B92
S11300400C948F0B0C94B80B0C94E10B0C940A0CCD
S11300500C94330C0C945C0C0C94850C0C94AE0C2A
S1130060EAC00000E8C00000E6C00000E4C00000F0
S1130070E2C00000E0C00000DEC00000DCC0000000
S1130080DAC00000D8C00000D6C00000D4C0000010
S1130090D2C00000D0C00000CEC00000CCC0000020
S11300A0CAC00000C8C00000C6C000000C94ED1017
S11300B0C2C00000C0C00000BEC000000C94480EC6
S11300C00C94710E0C949A0E0C94C30E0C94EC0EBA
S11300D00C94150FB0C00000AEC00000ACC000000E
S11300E0AAC00000A8C00000A6C00000A4C0000070
S11300F0A2C00000A0C000009EC000009CC0000080
S11301009AC0000098C0000096C0000094C000008F
S113011092C0000090C000008EC000008CC000009F
S11301208AC0000088C0000086C0000084C00000AF
S113013082C000000C94E3100C94D70C0C94000DB6
S11301400C94290D0C94520D0C947B0D0C94A40D5D
S11301500C94CD0D0C94F60D0C941F0E6CC0000085
S11301606AC0000068C0000066C0000064C00000EF
S113017062C0000060C000005EC000005CC00000FF
S11301805AC0000058C0000056C0000054C000000F
S113019052C0000050C000004EC000004CC000001F
S11301A04AC0000048C0000046C0000044C000002F
S11301B042C0000040C000003EC000003CC000003F
S11301C03AC0000038C0000036C0000034C000004F
S11301D032C0000030C000002EC000002CC000005F
S11301E02AC0000028C0000026C0000024C000006F
S11301F022C0000020C000001EC0000011241FBE49
S1130200CFEFCDBFDFE2DEBF10E2A0E0B0E2E8EE68
S1130210FBE202C005900D92AC30B107D9F721E2A0
S1130220ACE0B0E201C01D92A834B207E1F70E942D
S113023094100C94F215E4CECF92DF92EF92FF92D9
S11302400F931F93CF93DF93EC016A017B01DB01D2
S1130250CA010197A109B109BC01CD01600F711F49
S1130260821F931FA70196010E941713213831059D
S113027041055105F8F4213460F4213260F4213150
S113028060F4293060F4253060F4233060F090E0AD
S11302900BC093E009C092E007C092E805C091E06A
S11302A003C091E801C090E888818C77892B88830A
S11302B081E001C08FEFDF91CF911F910F91FF90EB
S11302C0EF90DF90CF9008952F923F924F925F92DC
S11302D06F927F928F929F92AF92BF92CF92DF9252
S11302E0EF92FF920F931F93CF93DF93CDB7DEB7B7
S11302F06497CDBFDEBF4C013B014D875E8719017A
S1130300B80180E090E00E94FE1120E030E040E877
S113031053E40E94B4120E94CD1129A53AA54BA51D
S11303205CA5261B370B480B590BCA01B9010E9467
S1130330001269837A838B839C83B70180E090E009
S11303400E94FE1120E030E040E054E30E94B41229
S113035029813A814B815C810E94B41220E030E013
S11303604AEF54E40E94FD1020E030E048EC52E4EF
S11303700E94651169877A878B879C87B30180E027
S113038090E00E94FE1120E030E040E855E40E9435
S1130390B412698B7A8B8B8B9C8B20E030E040E02D
S11303A05CE369817A818B819C810E94B41220E094
S11303B030E040E85DE30E94B4122B013C01B1013E
S11303C080E090E00E94FE119B01AC01C301B201E8
S11303D00E94B4129B01AC0169897A898B899C893A
S11303E00E94FD100E94CD112B013C01B40180E05C
S11303F090E00E94FE1120E030E040E855E40E94C5
S1130400B4126D837E838F83988720E030E040E8C8
S11304105BE369817A818B819C810E94B41220E024
S113042030E040E05EE30E94B41269837A838B83F8
S11304309C834D855E85BA0180E090E00E94FE11A8
S11304409B01AC0169817A818B819C810E94B412E9
S11304509B01AC016D817E818F8198850E94FD1086
S11304600E94CD1169837A838B839C8320E030E0E2
S113047040EA51E469857A858B859C850E946111E7
S113048088230CF0BBC020E030E04AEF54E46985D7
S11304907A858B859C850E94FC109B01AC010E948F
S11304A0B4126D837E838F83988720E030E040E030
S11304B05FE30E94B41220E030E040EA50E40E947E
S11304C0B4120E94CD116D877E878F87988B20E0B0
S11304D030E040E85EE36D817E818F8198850E94E3
S11304E0B41220E030E040EA50E40E94B4120E94CA
S11304F0CD116D837E838F83988720E030E040E7C1
S113050051EC69857A858B859C850E9461118823CD
S11305100CF05CC020E030E84BEB54E469857A854C
S11305208B859C850E94FD109B01AC010E94B41236
S1130530698B7A8B8B8B9C8B6D857E858F85988957
S11305400E9400126D877E878F87988B20E030E0B1
S113055040EE50E469897A898B899C890E94B4129F
S11305609B01AC016D857E858F8598890E94FD1065
S11305700E94CD116D877E878F87988B6D817E81D8
S11305808F8198850E9400126D837E838F83988764
S113059020E030E040E05FE369897A898B899C89B7
S11305A00E94B41220E030E040E351E40E94B4120F
S11305B09B01AC016D817E818F8198850E94FD1025
S11305C00E94CD116D837E838F8398878D859E8550
S11305D0AF85B889481A590A6A0A7B0A29813A817F
S11305E04B815C818D819E81AF81B885281B390B3D
S11305F04A0B5B0B29833A834B835C8369817A8141
S11306008B819C810E94001220E030E040E055E3A1
S11306100E94B41220E030E040E058E30E94B4129B
S113062020E030E040E051E40E94B41269837A8310
S11306308B839C83C601B5010E9400129B01AC010F
S113064069817A818B819C810E94B4126B017C0147
S1130650C301B2010E94001220E030E040E058E300
S11306600E94B41220E030E040E851E40E94B41249
S11306709B01AC01C701B6010E94FC1020E030E0F0
S113068048EC52E40E94651120E030E048EC52E46A
S11306900E94B41220910020213051F46093622012
S11306A070936320809364209093652010920020BF
S11306B002E610E2D801CD90DD90ED90FC90A70108
S11306C096010E94FC1021E43FE34DE05FE30E94A9
S11306D0B4129B01AC01C701B6010E94FD106093E6
S11306E06620709367208093682090936920F801B6
S11306F060837183828393830E94CD1160937320FE
S113070070937420809375209093762060936F206B
S113071070937020809371209093722020E030E0D9
S113072048EC52E469857A858B859C850E94B412D5
S11307300E94CD1160934320709344206496CDBFF2
S1130740DEBFDF91CF911F910F91FF90EF90DF906B
S1130750CF90BF90AF909F908F907F906F905F905D
S11307604F903F902F9008950F938EE180934A20ED
S113077000E021E04AE450E267E787E790E2A6D68A
S1130780EEE8F0E280818111FDCF8FEB9DE50197CA
S1130790F1F700C000000F9108954F925F926F929D
S11307A07F928F929F92AF92BF92CF92DF92EF92FD
S11307B0FF920F93CF93DF9382EA80934B200F2E07
S11307C0FEE46F2EF0E27F2EF02D0F2EFAE58F2E31
S11307D0F0E29F2EF02DCEE8D0E20F2EF2E8AF2EFD
S11307E0F0E2BF2EF02D0F2EF5E4CF2EF0E2DF2E37
S11307F0F02D0F2EF3E8EF2EF0E2FF2EF02D0F2E4A
S1130800F6E44F2EF0E25F2EF02D02E021E04BE4FF
S113081050E267E787E790E259D688818111FDCFDE
S1130820EBE4F0E280818E5F8083F5018081F60144
S11308308083F7012081F201208390E0982F88279C
S1130840820F911DF301819391933F01E815F905FE
S1130850E1F6DF91CF910F91FF90EF90DF90CF9071
S1130860BF90AF909F908F907F906F905F904F90CC
S113087008950F93CF93DF931F92CDB7DEB789838B
S113088000E021E0AE014F5F5F4F67E787E790E24A
S11308901DD6EEE8F0E280818111FDCF0F90DF914B
S11308A0CF910F9108950F931F93CF93DF931F92CE
S11308B0CDB7DEB78983162F03E021E0AE014F5F89
S11308C05F4F67E787E790E201D6EEE8F0E28081C8
S11308D08111FDCF80918220809347203091832025
S11308E0309348202091842020934920E12FF0E088
S11308F0EE0FFF1FEE0FFF1FEB5BFF4D90E0A0E03C
S1130900B0E0BA2FA92F982F8827830F911DA11D1E
S1130910B11DBA2FA92F982F8827820F911DA11DD1
S1130920B11D858B968BA78BB08F0F90DF91CF91E4
S11309301F910F910895AF92BF92CF92DF92EF92E1
S1130940FF920F931F9380916E20833069F086305D
S1130950D9F081115FC080914C208BDFEEE6F0E28C
S113096080818F5F808359C060E080914D209BDF40
S1130970ECE4F0E28081805F80837BDFEEE6F0E2EE
S113098080818F5F808349C088E480934C2061E03C
S113099080914D2088DF80910D208823A1F1A090C3
S11309A05A20B0905B20C0905C20D0905D20E090F5
S11309B05820F090592000915620109157202091F2
S11309C054203091552040915220509153206091F1
S11309D0502070915120EEE5F0E283818F93828163
S11309E08F9381818F9380818F9380914E209091FA
S11309F04F206ADC10920D2081E080930C200F9030
S1130A000F900F900F9080914C2033DF81E0809302
S1130A106E2003C08F5F80936E201F910F91FF9013
S1130A20EF90DF90CF90BF90AF900895E0E8F6E0AC
S1130A3082E0868385838AE68A95F1F700C082E0A6
S1130A4086830895E0ECF9E0838382818823ECF7C0
S1130A50E0ECF9E0838108951F93CF93DF93C0E620
S1130A60D6E010E11E83EEDF8FEFECDF1D83DF9114
S1130A70CF911F910895FF920F931F93CF93DF930C
S1130A80F62EC0E6D6E010E11E83DCDF082F8F2DA2
S1130A90D9DF1D83802FDF91CF911F910F91FF909C
S1130AA00895682F6F7785E2E6CF0895CF93C82F16
S1130AB0682F84E2E0DF6C2F81E2DDDFCF910895BF
S1130AC063E083E2D8CF089560E787E2D4CF089546
S1130AD0DF92EF92FF920F931F93CF93DF937B01EB
S1130AE08A0190E1E0E6F6E09683ACDFD82E10169A
S1130AF0110644F4E7010E0D1F1D8991A3DFC017F1
S1130B00D107D9F780E1E0E6F6E085838D2DDF910A
S1130B10CF911F910F91FF90EF90DF900895EF9286
S1130B20FF920F931F93CF93DF93F82EEB018A016B
S1130B30E22E82E091DF41E050E00F2C02C0440F2E
S1130B40551F0A94E2F7682F642B82E294DF81E157
S1130B508F0D6E2D80628FDF8AE08F0DA801BE019C
S1130B608062B6DFDF91CF911F910F91FF90EF90DC
S1130B700895AB01BC0180E3ABCF0895CF92DF921F
S1130B80EF92FF920F931F93CF93DF93F82ED62EFD
S1130B90142FE90180E08ADF1160612F6C2986E25D
S1130BA06ADF802F8DDF112707FD10952E2DA801F8
S1130BB0BE0180E0B4DF8D2D74DFB801CE01D9DF32
S1130BC06F2D6A6080E257DF8FED9EE20197F1F7A7
S1130BD000C00000DF91CF911F910F91FF90EF9023
S1130BE0DF90CF900895AB01BC0180EA71CF0895E6
S1130BF01F93CF93DF93C0E6D6E010E11E8381EE0E
S1130C0021DF1D83DF91CF911F9108951F93CF930F
S1130C10DF93C0E6D6E010E11E8382EE13DF1D836E
S1130C20DF91CF911F910895CF92EF920F931F936D
S1130C30CF93DF9386E28093CD2082E28093CE200F
S1130C4083E38093CF2084E48093D02085E5809350
S1130C50D12082E0E0E8F6E086832AE62A95F1F7DF
S1130C6000C08FEF93EC29E0815090402040E1F7E1
S1130C7000C0000029DFBCDFC9DFC0E8D6E012E015
S1130C801E830F2EF6E0CF2EF02D6894EE24E5F8A7
S1130C9005E02DEC30E240E261E080E06FDF1D838F
S1130CA08FE094E00197F1F700C000001092CB2090
S1130CB01092CC20DF91CF911F910F91EF90CF90A4
S1130CC00895DF92EF92FF920F931F93CF93DF93D8
S1130CD045E050E06DEC70E28AE2FADE65E070E037
S1130CE08DEC90E246DF80E090E0D12C01E010E250
S1130CF0C2EDD0E20F2EF9ECEF2EF0E2FF2EF02D34
S1130D00FC01EF54FF4D2181822F992787FD909597
S1130D109F932F931F930F93DF93CF930E943913C5
S1130D20B9D0D3948D2D90E0F701208130E02E5F6F
S1130D303F4F0F900F900F900F900F900F908217CE
S1130D409307F4F260E270E082EB90E24CDF6EDE37
S1130D50DF91CF911F910F91FF90EF90DF90089555
S1130D6060E787E288DE85FF04C098E0E0E8F6E00B
S1130D70978384FD3DCF0895EF92FF920F931F93C5
S1130D80CF93DF93CDB7DEB7FE013996619170E062
S1130D901616170604F580E090E028EC30E2A9EC82
S1130DA0B0E2AF014E5F5F4FF08001811F2D100F45
S1130DB0F901E0801E0D10831C91E12FF0E0EF5447
S1130DC0FF4DF38204831E5F1C93019686179707D9
S1130DD014F4FA01E6CFE9ECF0E280818F5F8083BE
S1130DE08093B420E82FF0E0EF54FF4D8091C820A9
S1130DF081958283DF91CF911F910F91FF90EF90A6
S1130E000895E2EBF0E28DEB90E21192E817F90716
S1130E10E1F7EBECF0E2808191810196808391838C
S1130E208093C7201092C82092E09093C9202FEF9E
S1130E302093B2202093B3209093B4208093B520C4
S1130E400895DFDFE1E7F0E281818F9380818F9362
S1130E50EFE6F0E281818F9380818F93809144202B
S1130E608F93809143208F93809141218F93809120
S1130E7040218F9380913F218F9380913E218F93C6
S1130E8085E08F9379DF1DDF8DB79EB70B968DBFFD
S1130E909EBF08950F931F93CF93DF9318161906DF
S1130EA06CF4C2EDD0E28C010E521F4D699180EAC0
S1130EB099E00E94860FC017D107C1F7DF91CF9147
S1130EC01F910F910895E0E5F0E0808182608083B6
S1130ED0E1E5F0E0808181FFFDCF88ED84BF81E012
S1130EE080934000E0E5F0E08081827E8083089575
S1130EF0CF93DF93E1E8F6E088E080838093860671
S1130F00A1E6B6E08C9380936506C0E0D6E080E36A
S1130F1088831C8280EB8C9382E08083E0E9F6E096
S1130F20808182608083E9E8F6E08081816080834B
S1130F30EAE8F6E0808181608083DF91CF910895B3
S1130F400F931F93CF93DF93C0EAD9E08D818F7302
S1130F508D8383E08D8300E018E428EE31E040E0E7
S1130F6052EC61E070E080EA99E0D8D78C81886027
S1130F708C838C8180618C83DF91CF911F910F9141
S1130F800895E0E0F9E08081807F82608083818140
S1130F90887F818386818C7F868386818260868335
S1130FA08FEF99EF86A397A380858E6F808780E06B
S1130FB099E064C708950F931F9300E018E428EEA6
S1130FC031E040E052E16AE770E080EC99E034D926
S1130FD0E0ECF9E08081806180838081806480839B
S1130FE01F910F9108956FDFE2EAF0E0808187603E
S1130FF080837EDFA5DFC5DFDEDF2BE940E460E828
S113100074E087E790E251D2E0E8F4E01086789447
S1131010089510926E2088E480934C2010924D2005
S1131020089528E030E090E8E0E0F6E0492F482316
S113103021F040814F7D408303C040814062408362
S113104044814061448345E34A95F1F700004481BB
S11310504F7E44839695215031092115310531F78E
S1131060E0E0F6E080818F7D8083848180618483E9
S1131070808594819F7E948380720895582FE0E048
S1131080F6E080818F7D808328E030E080E090E886
S1131090448140614483408545FD892B44814F7ED2
S11310A044839695215031092115310589F7513032
S11310B021F490910006906203C0909100069F7DF8
S11310C0E0E0F6E0908394819061948395E39A95AF
S11310D0F1F7000094819F7E948390819F7D90839B
S11310E0809342200895E0E0F6E080818F7D808344
S11310F084818F7E84838AE08A95F1F700C084819D
S1131100806184838AE08A95F1F700C080818062DF
S113111080838AE08A95F1F700C084818F7E84837E
S113112085E38A95F1F700008481806184838AE0F5
S11311308A95F1F700C080818F7D80838AE08A954B
S1131140F1F700C084818F7E84830895E0E0F6E0A7
S113115080818F7D808384818F7E848389E09481E4
S1131160906194839AE09A95F1F700C094819F7EF0
S113117094838150A1F7B7CF0895E8DF8EE151CF72
S11311800895CF93C82FAFDFCC2319F0C13039F0C5
S11311900CC083E046DF992787FD909508C085E061
S11311A040DF992787FD909502C080E090E0CF91C1
S11311B008952F923F924F925F926F927F928F92F7
S11311C09F92AF92BF92CF92DF92EF92FF920F93D2
S11311D01F93CF93DF9300D000D0CDB7DEB78C013F
S11311E01B012AE037ED43E25CE3FB01608171817E
S11311F0828193810E94B4122DEC3CEC4EE152E4C6
S1131200FBD72B013C01F801C080D180E280F38040
S113121020E030E048EC51E4EFD74B015C012CEACC
S113122035EC47EA58E3C701B6010E94B4122AE03C
S113123037ED43E25CE3E1D79B01AC01C501B401A6
S11312400E94B4124B015C0122EA37EE4BE356EBE9
S1131250C701B6010E94B4129B01AC01C701B601DB
S11312600E94B41269837A838B839C8324E533EED2
S113127045E25DE3C701B6010E94B4129B01AC01D3
S113128069817A818B819C81B8D720E030E040E885
S113129050E4B2D79B01AC01C501B401AED76B01D8
S11312A07C0120E030E048EC52E40E94B0121816B1
S11312B05CF02DEC3CEC4CEC5DE3C701B6010E9404
S11312C06111882354F012C00F2EC12CD12CF8ECDC
S11312D0EF2EF2E4FF2EF02D09C00F2EFDECCF2EE1
S11312E0FCECDF2EED2CFDE3FF2EF02DF10140820E
S11312F0518262827382F801C082D182E282F382D7
S11313002496CDBFDEBFDF91CF911F910F91FF9047
S1131310EF90DF90CF90BF90AF909F908F907F9091
S11313206F905F904F903F902F900895FF920F938E
S11313301F93CF93DF93EC018B01E0E0F6E0F084A0
S1131340F5FAFF24F0F881E099DE898381E096DEE6
S1131350888381E093DE982FF80180838093902026
S1131360809142209813F2DE8F2DDF91CF911F914F
S11313700F91FF900895FF920F931F93CF93DF93E4
S11313801F92CDB7DEB780910E20803561F0843690
S113139009F43DC081116FC0F4DE90910E209F5F6F
S11313A090930E206CC0BE016F5F7F4F8AE391E281
S11313B0BDDFF82E811122C00AE311E2F801608139
S11313C0718180E090E00E94FE11F80160837183D6
S11313D082839383B80186E391E2EBDE20E030E080
S11313E048EC52E4F80160817181828193810E940A
S11313F0B412D3D760933E2170933F2181E0C1DEC4
S11314008F0D90910E209F5F90930E2038C0BE01E7
S11314106F5F7F4F86E391E289DFF82E811124C04C
S113142006E311E2F8016081718180E090E0E6D783
S1131430F80160837183828393836AE371E2C80154
S1131440B8DE20E030E048EC52E4F80160817181BC
S1131450828193810E94B412A0D76093402170933B
S1131460412181E080930D2080E08BDE8F0D91E09F
S113147090930E2004C08F5F80930E200FC08823AA
S113148069F064DE87E0E4E0F0E2A2EDB0E201900E
S11314900D928A95E1F786E090E0FCDC0F90DF91F5
S11314A0CF911F910F91FF900895FC016083718388
S11314B04863DB0111964C93A081B18115962C935E
S11314C00190F081E02D81E0848308950F93CF9300
S11314D0DF93FC01293098F5093098F5878981114B
S11314E032C081E0878B108E660F6283222369F0FD
S11314F0A42FB52F40E050E08D91EF01C40FD51F0C
S11315008B834F5F5F4F4217B8F3238B048B158A8D
S1131510168A8389882341F082818E7F0190F0812D
S1131520E02D868381E012C08489882371F0828152
S113153081600190F081E02D868381E007C080E026
S113154005C080E003C080E001C081E0DF91CF915D
S11315500F910895FC01A081B18114968C91149788
S113156082FF03C094E0908F02C093E0908F886064
S113157014968C93178A0895CF93DF93FC01938973
S11315802489A081B18114968C91149784FF07C09B
S113159083E013968C9385E0808F178A1CC085891D
S11315A0891758F48589EF01C80FD11D8B811796CF
S11315B08C9385898F5F858B0EC08689821728F46A
S11315C08281816016968C9306C083E013968C9377
S11315D081E0808F178ADF91CF910895FC0186897D
S11315E0883070F4A081B18117968C919689DF01BF
S11315F0A90FB11D1B968C9386898F5F868B08C0BB
S1131600A081B18183E013968C9382E0808F178A46
S113161094898689891730F40190F081E02D82E065
S113162083830895A081B18187E013968C9381E030
S1131630808F178A0895DC01ED91FC912481322F6B
S11316403C7011F087CF089526FF02C095CF08950E
S1131650222314F4C3CF089526E0FC01208F178AB7
S113166008959FB7F894E82FF0E0E059FF4F609594
S11316708081682360839FBF08951F920F920FB6E5
S11316800F9211242F933F934F935F936F937F9304
S11316908F939F93AF93BF93EF93FF93E0913F207A
S11316A0F0914020309709F00995FF91EF91BF9197
S11316B0AF919F918F917F916F915F914F913F91E6
S11316C02F910F900FBE0F901F9018951F920F929D
S11316D00FB60F9211242F933F934F935F936F9301
S11316E07F938F939F93AF93BF93EF93FF93E09177
S11316F03D20F0913E20309709F00995FF91EF913C
S1131700BF91AF919F918F917F916F915F914F9115
S11317103F912F910F900FBE0F901F9018951F921D
S11317200F920FB60F9211242F933F934F935F9311
S11317306F937F938F939F93AF93BF93EF93FF9395
S1131740E0913B20F0913C20309709F00995FF91FE
S1131750EF91BF91AF919F918F917F916F915F9125
S11317604F913F912F910F900FBE0F901F9018959E
S11317701F920F920FB60F9211242F933F934F9302
S11317805F936F937F938F939F93AF93BF93EF93E5
S1131790FF93E0913920F0913A20309709F00995B0
S11317A0FF91EF91BF91AF919F918F917F916F9135
S11317B05F914F913F912F910F900FBE0F901F900B
S11317C018951F920F920FB60F9211242F933F93E7
S11317D04F935F936F937F938F939F93AF93BF9335
S11317E0EF93FF93E0913720F0913820309709F080
S11317F00995FF91EF91BF91AF919F918F917F9147
S11318006F915F914F913F912F910F900FBE0F9069
S11318101F9018951F920F920FB60F9211242F93B9
S11318203F934F935F936F937F938F939F93AF9364
S1131830BF93EF93FF93E0913520F09136203097DA
S113184009F00995FF91EF91BF91AF919F918F910D
S11318507F916F915F914F913F912F910F900FBEA8
S11318600F901F9018951F920F920FB60F9211248C
S11318702F933F934F935F936F937F938F939F9394
S1131880AF93BF93EF93FF93E0913320F091342013
S1131890309709F00995FF91EF91BF91AF919F9116
S11318A08F917F916F915F914F913F912F910F9005
S11318B00FBE0F901F9018951F920F920FB60F92A4
S11318C011242F933F934F935F936F937F938F9341
S11318D09F93AF93BF93EF93FF93E0913120F091E7
S11318E03220309709F00995FF91EF91BF91AF91A4
S11318F09F918F917F916F915F914F913F912F9124
S11319000F900FBE0F901F9018951F920F920FB655
S11319100F9211242F933F934F935F936F937F9371
S11319208F939F93AF93BF93EF93FF93E0912F20F7
S1131930F0913020309709F00995FF91EF91BF9114
S1131940AF919F918F917F916F915F914F913F9153
S11319502F910F900FBE0F901F9018951F920F920A
S11319600FB60F9211242F933F934F935F936F936E
S11319707F938F939F93AF93BF93EF93FF93E091E4
S11319802D20F0912E20309709F00995FF91EF91C9
S1131990BF91AF919F918F917F916F915F914F9183
S11319A03F912F910F900FBE0F901F9018951F928B
S11319B00F920FB60F9211242F933F934F935F937F
S11319C06F937F938F939F93AF93BF93EF93FF9303
S11319D0E0912B20F0912C20309709F00995FF918C
S11319E0EF91BF91AF919F918F917F916F915F9193
S11319F04F913F912F910F900FBE0F901F9018950C
S1131A001F920F920FB60F9211242F933F934F936F
S1131A105F936F937F938F939F93AF93BF93EF9352
S1131A20FF93E0912920F0912A20309709F009953D
S1131A30FF91EF91BF91AF919F918F917F916F91A2
S1131A405F914F913F912F910F900FBE0F901F9078
S1131A5018951F920F920FB60F9211242F933F9354
S1131A604F935F936F937F938F939F93AF93BF93A2
S1131A70EF93FF93E0912720F0912820309709F00D
S1131A800995FF91EF91BF91AF919F918F917F91B4
S1131A906F915F914F913F912F910F900FBE0F90D7
S1131AA01F9018951F920F920FB60F9211242F9327
S1131AB03F934F935F936F937F938F939F93AF93D2
S1131AC0BF93EF93FF93E0912520F0912620309768
S1131AD009F00995FF91EF91BF91AF919F918F917B
S1131AE07F916F915F914F913F912F910F900FBE16
S1131AF00F901F9018951F920F920FB60F921124FA
S1131B002F933F934F935F936F937F938F939F9301
S1131B10AF93BF93EF93FF93E0912320F0912420A0
S1131B20309709F00995FF91EF91BF91AF919F9183
S1131B308F917F916F915F914F913F912F910F9072
S1131B400FBE0F901F9018951F920F920FB60F9211
S1131B5011242F933F934F935F936F937F938F93AE
S1131B609F93AF93BF93EF93FF93E0912120F09164
S1131B702220309709F00995FF91EF91BF91AF9121
S1131B809F918F917F916F915F914F913F912F9191
S1131B900F900FBE0F901F9018951F920F920FB6C3
S1131BA00F9211242F933F934F935F936F937F93DF
S1131BB08F939F93AF93BF93EF93FF93E0911F2075
S1131BC0F0912020309709F00995FF91EF91BF9192
S1131BD0AF919F918F917F916F915F914F913F91C1
S1131BE02F910F900FBE0F901F9018951F920F9278
S1131BF00FB60F9211242F933F934F935F936F93DC
S1131C007F938F939F93AF93BF93EF93FF93E09151
S1131C101D20F0911E20309709F00995FF91EF9156
S1131C20BF91AF919F918F917F916F915F914F91F0
S1131C303F912F910F900FBE0F901F9018951F92F8
S1131C400F920FB60F9211242F933F934F935F93EC
S1131C506F937F938F939F93AF93BF93EF93FF9370
S1131C60E0911B20F0911C20309709F00995FF9119
S1131C70EF91BF91AF919F918F917F916F915F9100
S1131C804F913F912F910F900FBE0F901F90189579
S1131C901F920F920FB60F9211242F933F934F93DD
S1131CA05F936F937F938F939F93AF93BF93EF93C0
S1131CB0FF93E0911920F0911A20309709F00995CB
S1131CC0FF91EF91BF91AF919F918F917F916F9110
S1131CD05F914F913F912F910F900FBE0F901F90E6
S1131CE018951F920F920FB60F9211242F933F93C2
S1131CF04F935F936F937F938F939F93AF93BF9310
S1131D00EF93FF93E0911720F0911820309709F09A
S1131D100995FF91EF91BF91AF919F918F917F9121
S1131D206F915F914F913F912F910F900FBE0F9044
S1131D301F9018951F920F920FB60F9211242F9394
S1131D403F934F935F936F937F938F939F93AF933F
S1131D50BF93EF93FF93E0911520F09116203097F5
S1131D6009F00995FF91EF91BF91AF919F918F91E8
S1131D707F916F915F914F913F912F910F900FBE83
S1131D800F901F9018951F920F920FB60F92112467
S1131D902F933F934F935F936F937F938F939F936F
S1131DA0AF93BF93EF93FF93E0911320F09114202E
S1131DB0309709F00995FF91EF91BF91AF919F91F1
S1131DC08F917F916F915F914F913F912F910F90E0
S1131DD00FBE0F901F9018951F920F920FB60F927F
S1131DE011242F933F934F935F936F937F938F931C
S1131DF09F93AF93BF93EF93FF93E0911120F091E2
S1131E001220309709F00995FF91EF91BF91AF919E
S1131E109F918F917F916F915F914F913F912F91FE
S1131E200F900FBE0F901F9018951F920F920FB630
S1131E300F9211242F933F934F935F936F937F934C
S1131E408F939F93AF93BF93EF93FF93E0910F20F2
S1131E50F0911020309709F00995FF91EF91BF910F
S1131E60AF919F918F917F916F915F914F913F912E
S1131E702F910F900FBE0F901F901895CF93CFB74F
S1131E80F894282F392F211588E0380739F461E0B8
S1131E9083E0E7DB64E083E0E4DB2DC0203488E00A
S1131EA0380739F462E083E0DCDB64E083E0D9DB0B
S1131EB022C0211589E0380739F461E084E0D1DBE0
S1131EC064E084E0CEDB17C0203489E0380739F4BD
S1131ED062E084E0C6DB64E084E0C3DB0CC021156F
S1131EE03A4039F461E085E0BCDB64E085E0B9DBCD
S1131EF002C0CFBF09C08FB7F894E3E4F1E2908148
S1131F009F5F90838FBFCFBFCF910895FC018181E4
S1131F1085FFFDCF608380E090E008954F925F924B
S1131F206F927F928F929F92AF92BF92CF92DF92E5
S1131F30EF92FF920F931F93CF93DF93EC014A012B
S1131F405B0128013901D901C801689412F8B695DA
S1131F50A795979587951694D1F7B901A801032EF3
S1131F6036E176956795579547953A95D1F7302D93
S1131F702C8122FD08C0B695A795979587957695EF
S1131F8067955795479588159905AA05BB0508F4E3
S1131F90A2C084169506A606B70608F49EC08C81D6
S1131FA082FD04C0880C991CAA1CBB1CC301B2018D
S1131FB0A50194013CD32F3F31054105510508F497
S1131FC08EC0C12CD12C7601CA9419EF05C02C15F2
S1131FD03D054E055F0568F0CC0CDD1CEE1CFF1CB6
S1131FE01D3F14F46894C0F81F5F173081F7212F48
S1131FF04EC0212F11230CF04AC0D501C401880F13
S1132000991FAA1FBB1F880F991FAA1FBB1F880FE8
S1132010991FAA1FBB1F481A590A6A0A7B0A1E3F46
S1132020ECF46DEF7FEF611B710917FD739504C02C
S1132030440C551C661C771C6A95D2F7D501C40163
S1132040B695A79597958795BC01CD01640D751D2F
S1132050861D971DA5019401EAD234C023E0210F07
S1132060D501C40104C0880F991FAA1FBB1F2A955C
S1132070D2F79C01AD01B695A79597958795BC01BC
S1132080CD01640D751D861D971DD1D21BC02D5F1A
S1132090D501C40104C0880F991FAA1FBB1F2A952C
S11320A0D2F79C01AD01B695A79597958795BC018C
S11320B0CD01640D751D861D971DB9D221503109BE
S11320C041095109832F8F701295107F182B1F839C
S11320D02E8381E018C080E016C080E014C0D501D2
S11320E0C401880F991FAA1FBB1F880F991FAA1F1D
S11320F0BB1F880F991FAA1FBB1F481A590A6A0AD7
S11321007B0A19EF8ECFDF91CF911F910F91FF9032
S1132110EF90DF90CF90BF90AF909F908F907F9083
S11321206F905F904F9008950E94F3070E941406E9
S11321300E94B4030E94CD0320D80E940908109283
S1132140200910922109C0E2D9E0888199818F3F4A
S1132150994FD9F710D90E949B0480910C208823B1
S113216021F00E94210710920C20809141208823A5
S113217061F30E94B00610924120E7CF1F920F92A4
S11321800FB60F9211242F933F934F935F936F9346
S11321907F938F939F93AF93BF93EF93FF9387E7BF
S11321A090E249DAFF91EF91BF91AF919F918F91A6
S11321B07F916F915F914F913F912F910F900FBE3F
S11321C00F901F9018951F920F920FB60F92112423
S11321D00F900FBE0F901F9018951F920F920FB67D
S11321E00F9211248F9381E0809341208F910F905F
S11321F00FBE0F901F9018955058BB27AA270ED0DA
S113220075C166D130F06BD120F031F49F3F11F4E9
S11322101EF45BC10EF4E095E7FB51C1E92F77D1C1
S113222080F3BA17620773078407950718F071F4EF
S11322309EF58FC10EF4E0950B2EBA2FA02D0B0145
S1132240B90190010C01CA01A0011124FF27591BF7
S113225099F0593F50F4503E68F11A16F040A22FFD
S1132260232F342F4427585FF3CF4695379527956E
S1132270A795F0405395C9F77EF41F16BA0B620B6D
S1132280730B840BBAF09150A1F0FF0FBB1F661FB4
S1132290771F881FC2F70EC0BA0F621F731F841FF7
S11322A048F4879577956795B795F7959E3F08F01D
S11322B0B3CF9395880F08F09927EE0F97958795DC
S11322C00895D9D008F481E008950CD00FC107D146
S11322D040F0FED030F021F45F3F19F0F0C051110E
S11322E039C1F3C014D198F39923C9F35523B1F339
S11322F0951B550BBB27AA2762177307840738F071
S11323009F5F5F4F220F331F441FAA1FA9F333D0CF
S11323100E2E3AF0E0E830D091505040E695001C83
S1132320CAF729D0FE2F27D0660F771F881FBB1F3F
S1132330261737074807AB07B0E809F0BB0B802D19
S1132340BF01FF2793585F4F2AF09E3F510568F065
S1132350B6C000C15F3FECF3983EDCF386957795F9
S11323606795B795F7959F5FC9F7880F911D969567
S1132370879597F90895E1E0660F771F881FBB1FC3
S1132380621773078407BA0720F0621B730B840B70
S1132390BA0BEE1F88F7E095089504D06894B11144
S11323A0D9C00895BCD088F09F5790F0B92F9927D1
S11323B0B751A0F0D1F0660F771F881F991F1AF04C
S11323C0BA95C9F712C0B13081F0C3D0B1E0089515
S11323D0C0C0672F782F8827B85F39F0B93FCCF396
S11323E0869577956795B395D9F73EF49095809542
S11323F0709561957F4F8F4F9F4F0895E89409C062
S113240097FB3EF490958095709561957F4F8F4F23
S11324109F4F9923A9F0F92F96E9BB279395F69539
S1132420879577956795B795F111F8CFFAF4BB0FB7
S113243011F460FF1BC06F5F7F4F8F4F9F4F16C01B
S1132440882311F096E911C0772321F09EE8872FA5
S1132450762F05C0662371F096E8862F70E060E061
S11324602AF09A95660F771F881FDAF7880F9695DA
S1132470879597F90895990F0008550FAA0BE0E87E
S1132480FEEF16161706E807F907C0F01216130632
S1132490E407F50798F0621B730B840B950B39F472
S11324A00A2661F0232B242B252B21F408950A26D8
S11324B009F4A140A6958FEF811D811D089597F918
S11324C09F6780E870E060E008959FEF80EC0895D6
S11324D000240A94161617061806090608950024FF
S11324E00A9412161306140605060895092E039479
S11324F0000C11F4882352F0BB0F40F4BF2B11F4ED
S113250060FF04C06F5F7F4F8F4F9F4F089557FD4B
S11325109058440F551F59F05F3F71F04795880F4D
S113252097FB991F61F09F3F79F0879508951216E4
S113253013061406551FF2CF4695F1DF08C0161690
S113254017061806991FF1CF869571056105089441
S11325500895E894BB2766277727CB0197F9089558
S11325608ADF08F48FEF08950BD0C0CFB1DF28F0D5
S1132570B6DF18F0952309F0A2CFA7CF1124EACF34
S1132580C6DFA0F3959FD1F3950F50E0551F629FCE
S1132590F001729FBB27F00DB11D639FAA27F00DB8
S11325A0B11DAA1F649F6627B00DA11D661F829FDF
S11325B02227B00DA11D621F739FB00DA11D621FC4
S11325C0839FA00D611D221F749F3327A00D611DE1
S11325D0231F849F600D211D822F762F6A2F1124C3
S11325E09F5750408AF0E1F088234AF0EE0FFF1F16
S11325F0BB1F661F771F881F91505040A9F79E3F4D
S1132600510570F05CCFA6CF5F3FECF3983EDCF34E
S1132610869577956795B795F795E7959F5FC1F789
S1132620FE2B880F911D9695879597F90895A1E241
S11326301A2EAA1BBB1BFD010DC0AA1FBB1FEE1F38
S1132640FF1FA217B307E407F50720F0A21BB30B83
S1132650E40BF50B661F771F881F991F1A9469F7FF
S113266060957095809590959B01AC01BD01CF015B
S11326700895AEE0B0E0EEE3F3E191C20D891E8966
S113268086E08C8309831A838FEF9FE78D839E8373
S1132690AE01475E5F4F6F89788DCE01019608D0F9
S11326A0EF81F885E00FF11F10822E96E4E090C2CE
S11326B0ACE0B0E0EDE5F3E164C27C016B018A01BA
S11326C0FC0116821782838181FFB0C1CE0101967D
S11326D04C01F7019381F60193FD859193FF81915C
S11326E06F01882309F49EC1853239F493FD8591E5
S11326F093FF81916F01853221F4B70190E0B1D14C
S1132700E8CF512C312C20E02032A0F48B3269F038
S113271030F4803259F0833269F420612CC08D3258
S113272039F0803339F4216026C02260246023C04C
S1132730286021C027FD27C030ED380F3A3078F4E7
S113274026FF06C0FAE05F9E300D1124532E13C0FD
S11327508AE0389E300D1124332E20620CC08E3254
S113276021F426FD5FC1206406C08C3611F4206874
S113277002C0883641F4F60193FD859193FF81915F
S11327806F018111C1CF982F9F7D9554933028F408
S11327900C5F1F4FFFE3F9830DC0833631F083379D
S11327A071F0833509F057C021C0F8018081898315
S11327B00E5F1F4F44244394512C540114C038011C
S11327C0F2E06F0E711CF801A080B18026FF03C0F7
S11327D0652D70E002C06FEF7FEFC5012C8736D105
S11327E02C0183012C852F77222E16C03801F2E0AC
S11327F06F0E711CF801A080B18026FF03C0652D07
S113280070E002C06FEF7FEFC5012C8714D12C015B
S11328102C852068222E830123FC19C0832D90E08F
S113282048165906A0F4B70180E290E01AD13A9410
S1132830F5CFF50127FC859127FE81915F01B70152
S113284090E00FD131103A94F1E04F1A510841143D
S1132850510479F7DEC0843611F0893631F5F80178
S113286027FF07C060817181828193810C5F1F4FB4
S113287008C060817181882777FD8095982F0E5F4D
S11328801F4F2F76B22E97FF09C0909580957095B3
S113289061957F4F8F4F9F4F2068B22E2AE030E022
S11328A0A40111D1A82EA81843C0853729F42F7E7E
S11328B0B22E2AE030E025C0F22FF97FBF2E8F36EA
S11328C0C1F018F4883579F0ADC0803719F0883735
S11328D021F0A8C02F2F2061B22EB4FE0DC08B2D85
S11328E08460B82E09C024FF0AC09F2F9660B92EB9
S11328F006C028E030E005C020E130E002C020E15D
S113290032E0F801B7FE07C0608171818281938152
S11329100C5F1F4F06C06081718180E090E00E5F04
S11329201F4FA401D0D0A82EA818FB2DFF77BF2ECF
S1132930B6FE0BC02B2D2E7FA51450F4B4FE0AC096
S1132940B2FC08C02B2D2E7E05C07A2C2B2D03C083
S11329507A2C01C0752C24FF0DC0FE01EA0DF11D77
S11329608081803311F4297E09C022FF06C073944C
S1132970739404C0822F867809F0739423FD12C0E7
S113298020FF06C05A2C731418F4530C5718732CD8
S1132990731460F4B70180E290E02C8762D07394E2
S11329A02C85F6CF731410F4371801C0312C24FF92
S11329B011C0B70180E390E02C8753D02C8522FF0F
S11329C016C021FF03C088E590E002C088E790E0CC
S11329D0B7010CC0822F867851F021FD02C080E23D
S11329E001C08BE227FD8DE2B70190E03AD0A51437
S11329F030F4B70180E390E034D05A94F8CFAA942D
S1132A00F401EA0DF11D8081B70190E02AD0A110F4
S1132A10F6CF332009F45DCEB70180E290E021D0F7
S1132A203A94F7CFF7018681978102C08FEF9FEF29
S1132A302C96E2E1BFC0FC0105906150704001108A
S1132A40D8F7809590958E0F9F1F0895FC016150D3
S1132A50704001900110D8F7809590958E0F9F1FBC
S1132A6008950F931F93CF93DF93182F092FEB0132
S1132A708B8181FD03C08FEF9FEF20C082FF10C0C8
S1132A804E815F812C813D81421753077CF4E8819C
S1132A90F9819F012F5F3F4F28833983108306C03C
S1132AA0E885F985812F0995892B29F72E813F81A6
S1132AB02F5F3F4F2E833F83812F902FDF91CF9144
S1132AC01F910F910895FA01AA27283051F120315E
S1132AD081F1E8946F936E7F6E5F7F4F8F4F9F4FAE
S1132AE0AF4FB1E03ED0B4E03CD0670F781F891FF0
S1132AF09A1FA11D680F791F8A1F911DA11D6A0FBE
S1132B00711D811D911DA11D20D009F468943F9170
S1132B102AE0269F11243019305D3193DEF6CF016F
S1132B200895462F4770405D4193B3E00FD0C9F735
S1132B30F6CF462F4F70405D4A3318F0495D31FDA2
S1132B404052419302D0A9F7EACFB4E0A6959795F5
S1132B50879577956795BA95C9F7009761057105CB
S1132B6008959B01AC010A2E069457954795379515
S1132B702795BA95C9F7620F731F841F951FA01D6F
S1132B8008952F923F924F925F926F927F928F920D
S1132B909F92AF92BF92CF92DF92EF92FF920F93E8
S1132BA01F93CF93DF93CDB7DEB7CA1BDB0BCDBF2B
S1132BB0DEBF09942A88398848885F846E847D84BE
S1132BC08C849B84AA84B984C884DF80EE80FD80D1
S1132BD00C811B81AA81B981CE0FD11DCDBFDEBF6F
S10B2BE0ED010895F894FFCF04
S10F2BE8012563006572726F720D00001D
S9030000FC
